:020000040000fa
:080000000002040000000000f2
:020000040000fa
:04000800e80200000a
:020000040000fa
:04000c00e802000006
:020000040000fa
:04001000e802000002
:020000040000fa
:04001400e8020000fe
:020000040000fa
:04001800e8020000fa
:020000040000fa
:04001c00e8020000f6
:020000040000fa
:04002000e8020000f2
:020000040000fa
:04002400e8020000ee
:020000040000fa
:04002800e8020000ea
:020000040000fa
:04002c00e8020000e6
:020000040000fa
:04003000e8020000e2
:020000040000fa
:04003400e8020000de
:020000040000fa
:04003800e8020000da
:020000040000fa
:04003c00e8020000d6
:020000040000fa
:04004000e8020000d2
:020000040000fa
:04004400e8020000ce
:020000040000fa
:04004800e8020000ca
:020000040000fa
:04004c00e8020000c6
:020000040000fa
:04005000cc300000b0
:020000040000fa
:04005400ac410000bb
:020000040000fa
:04005800584100000b
:020000040000fa
:04005c00e8020000b6
:020000040000fa
:04006000e8020000b2
:020000040000fa
:04006400e8020000ae
:020000040000fa
:04006800e8020000aa
:020000040000fa
:04006c00e8020000a6
:020000040000fa
:04007000e8020000a2
:020000040000fa
:04007400de45000065
:020000040000fa
:04007800e80200009a
:020000040000fa
:04007c00e802000096
:020000040000fa
:04008000e802000092
:020000040000fa
:04008400e80200008e
:020000040000fa
:04008800e80200008a
:020000040000fa
:04008c00e802000086
:020000040000fa
:04009000e802000082
:020000040000fa
:04009400e80200007e
:020000040000fa
:04009800ee3c00003a
:020000040000fa
:04009c00e802000076
:020000040000fa
:0400a000e802000072
:020000040000fa
:0400a400e80200006e
:020000040000fa
:0400a800e80200006a
:020000040000fa
:0400ac00e802000066
:020000040000fa
:0400b000e802000062
:020000040000fa
:0400b400e80200005e
:020000040000fa
:0400b800e80200005a
:020000040000fa
:0400bc00e802000056
:020000040000fa
:0400c000e802000052
:020000040000fa
:0400c400e80200004e
:020000040000fa
:0400c800e80200004a
:020000040000fa
:0400cc00e802000046
:020000040000fa
:0400d000e802000042
:020000040000fa
:0400d400e80200003e
:020000040000fa
:0400d800e80200003a
:020000040000fa
:0400dc00e802000036
:020000040000fa
:0400e000e802000032
:020000040000fa
:0400e400e80200002e
:020000040000fa
:0400e800e80200002a
:020000040000fa
:0400ec00e802000026
:020000040000fa
:0400f000e802000022
:020000040000fa
:0400f400e80200001e
:020000040000fa
:0400f800e80200001a
:020000040000fa
:0400fc00e802000016
:020000040000fa
:04010000e802000011
:020000040000fa
:04010400e80200000d
:020000040000fa
:04010800e802000009
:020000040000fa
:04010c00e802000005
:020000040000fa
:04011000e802000001
:020000040000fa
:04011400e8020000fd
:020000040000fa
:04011800e8020000f9
:020000040000fa
:04011c00e8020000f5
:020000040000fa
:04012000e8020000f1
:020000040000fa
:04012400e8020000ed
:020000040000fa
:04012800e8020000e9
:020000040000fa
:04012c00e8020000e5
:020000040000fa
:04013000e8020000e1
:020000040000fa
:04013400e8020000dd
:020000040000fa
:04013800e8020000d9
:020000040000fa
:04013c00e8020000d5
:020000040000fa
:04014000e8020000d1
:020000040000fa
:04014400e8020000cd
:020000040000fa
:04014800e8020000c9
:020000040000fa
:04014c00e8020000c5
:020000040000fa
:04015000e8020000c1
:020000040000fa
:04015400e8020000bd
:020000040000fa
:04015800e8020000b9
:020000040000fa
:04015c00e8020000b5
:020000040000fa
:04016000e8020000b1
:020000040000fa
:04016400e8020000ad
:020000040000fa
:04016800e8020000a9
:020000040000fa
:04016c00e8020000a5
:020000040000fa
:04017000e8020000a1
:020000040000fa
:04017400e80200009d
:020000040000fa
:04017800e802000099
:020000040000fa
:04017c00e802000095
:020000040000fa
:04018000e802000091
:020000040000fa
:04018400e80200008d
:020000040000fa
:04018800e802000089
:020000040000fa
:04018c00e802000085
:020000040000fa
:04019000e802000081
:020000040000fa
:04019400e80200007d
:020000040000fa
:04019800e802000079
:020000040000fa
:04019c00e802000075
:020000040000fa
:0401a000e802000071
:020000040000fa
:0401a400e80200006d
:020000040000fa
:0401a800e802000069
:020000040000fa
:0401ac00e802000065
:020000040000fa
:0401b000e802000061
:020000040000fa
:0401b400e80200005d
:020000040000fa
:0401b800e802000059
:020000040000fa
:0401bc00e802000055
:020000040000fa
:0401c000e802000051
:020000040000fa
:0401c400e80200004d
:020000040000fa
:0401c800e802000049
:020000040000fa
:0401cc00e802000045
:020000040000fa
:0401d000e802000041
:020000040000fa
:0401d400e80200003d
:020000040000fa
:0401d800e802000039
:020000040000fa
:0401dc00e802000035
:020000040000fa
:0401e000e802000031
:020000040000fa
:0401e400e80200002d
:020000040000fa
:0401e800e802000029
:020000040000fa
:0401ec00e802000025
:020000040000fa
:0401f000e802000021
:020000040000fa
:0401f400e80200001d
:020000040000fa
:0401f800e802000019
:020000040000fa
:0401fc00e802000015
:020000040000fa
:04020000e802000010
:020000040000fa
:04020400e80200000c
:020000040000fa
:04020800e802000008
:020000040000fa
:04020c00e802000004
:020000040000fa
:04021000e802000000
:020000040000fa
:04021400e8020000fc
:020000040000fa
:04021800e8020000f8
:020000040000fa
:04021c00e8020000f4
:020000040000fa
:04022000e8020000f0
:020000040000fa
:04022400e8020000ec
:020000040000fa
:04022800e8020000e8
:020000040000fa
:04022c00e8020000e4
:020000040000fa
:04023000e8020000e0
:020000040000fa
:04023400e8020000dc
:020000040000fa
:04023800e8020000d8
:020000040000fa
:04023c00e8020000d4
:020000040000fa
:04024000e8020000d0
:020000040000fa
:04024400e8020000cc
:020000040000fa
:04024800e8020000c8
:020000040000fa
:04024c00e8020000c4
:020000040000fa
:04025000e8020000c0
:020000040000fa
:04025400e8020000bc
:020000040000fa
:04025800e8020000b8
:020000040000fa
:04025c00e8020000b4
:020000040000fa
:04026000e8020000b0
:020000040000fa
:04026400e8020000ac
:020000040000fa
:04026800e8020000a8
:020000040000fa
:04026c00e8020000a4
:020000040000fa
:04027000e8020000a0
:020000040000fa
:04027400e80200009c
:020000040000fa
:04027800e802000098
:020000040000fa
:04027c00e802000094
:020000040000fa
:04028000e802000090
:020000040000fa
:100400000f9b21000eff21000e018800000000005c
:10041000000020000000e000020032000001200087
:10042000200288000c000700202925000100200080
:100430000f000700000020000000e0000200320072
:1004400000000200000000005653020000000000ff
:100450000040da000000fe0080b321000000e00050
:1004600002003200002020009001880000000600f9
:10047000a1028800800078000000eb001a0037001d
:10048000e280400054a0b4009101ba00e280400034
:1004900054a0b4009102ba00e280400054a0b4001d
:1004a0000002eb00472bde00f507b200a601880032
:1004b000602ce10008003a000049eb000201e8006e
:1004c000020039003420ec0002f0a0008301e900b2
:1004d000f9ff3e00040037006128e100010032000e
:1004e0000082eb000b00070011c3ba001101ba0033
:1004f0000604e00003003a000200e000e0ff3a00da
:1005000000000600f607b200a6028800820078000c
:10051000f5ff370004d0a300e20f49001c003900aa
:10052000810278003549ba000201e8000200390072
:100530003420ec0002f0a0008301e9000f0032003b
:100540002549ba000201e800020039003420ec001d
:1005500002f0a0008301e900080032000400e0007e
:100560000600320015c9ba000201e8000200390095
:100570003420ec0002f0a0008301e9008180e80053
:1005800054a0b4000300e000e2ff3a0000000600bf
:100590009102ba00055978008301e900f7ff3200a3
:1005a000c82ade00055978008301e900f3ff320014
:1005b0000400e000f1ff320011d9ba00eeff37006d
:1005c000000000000000000000000000000000002b
:1005d0000040da000000fe0003f0a200889fbe0089
:1005e0008a9fbe008c1f7800f3000700fa003300da
:1005f0006450e1004f0032006420e10052003200fc
:1006000003826c0007003b000905d0000306d00000
:10061000820f54000c065d00020039000200320017
:1006200089017800030678008582550004003d00aa
:100630000003fd008103fd008502ea008b85420076
:10064000840f720002003b0060001000e080180080
:100650006011b8000005eb007a28e1000a003900bb
:1006600006007800c75ddd00f707b20087807500df
:100670002d003700828171000a0178006105600059
:100680008180d1000080d3008502e900f9ff3b00a2
:10069000060440008784480002003b006004140008
:1006a000e0841c000988a300070032008a817100e1
:1006b00082817100610164008904d1000884d30043
:1006c0008b05e800170037000978a30013003a00f3
:1006d0000b00e000130034008b05e900080444001f
:1006e00089844c000a4474000978a3000d003a0084
:1006f0000b00e000070034008b05e900080444000b
:1007000089844c0001003a000b0020000978a30006
:10071000f7ff32000001eb00020037008281710018
:100720000a017800690007000cf0a70001f0a000a2
:10073000b20037006420e10002003a00838f6c00b1
:10074000b20033000801be000200be00ab0037005b
:10075000889fbe008a9fbe008c1f7800960007000d
:100760009d00330003866c006450e1002e003200cf
:100770006420e100330032006150e1002f003200bc
:100780006120e1003100320085855500eb07b000a3
:100790000900200008042000050037000804440078
:1007a00089844c000a0031000603430087834b0014
:1007b0000001530081815b00f8ff33000203be009b
:1007c0000800a0000804440089844c00f6ff3900aa
:1007d000c639dd00830173000100320013002000e0
:1007e0008904d1000884d3000998a30005003200d1
:1007f0000800a7000300a0008904d1000884d300ea
:100800008b05e8008904d1000884d3000001eb00c7
:100810000281d2002d00070001f0a1000cf0a7001a
:1008200001f0a000750037006420e100770032007d
:100830000801be000200be00f7ff37006120e100a2
:10084000720032006000b800f3ff370000002000a3
:1008500001f82700f0ff37000001be00410007004b
:100860000470a70003f0a10003f8a30013003a00ee
:100870006509b10010003200090035006928e10067
:1008800002003500010028000000050000004000c3
:10089000818048008502e900fcff3a000000060064
:1008a000f88f4200050035008100d1000080d300a0
:1008b0008502e800fcff3a00000006008000eb0023
:1008c000000005006011b80097003700810020008b
:1008d000618055000b003d000b00200061fe2f00e1
:1008e0000100e1001d00340082817100610164009b
:1008f0008904d1000884d3000000e800faff3a0020
:1009000071002000610064000300700002006000bc
:100910000900320061044400e0844c000988a5000d
:10092000050032008b05e8006808e10002003a008b
:100930008904d1000884d300f20f20000258e1009e
:1009400005003d00c75ddd00f907b2008980750034
:1009500008007800000006000bf827008b007800e4
:1009600000000500c70ade00f107b200f50fb20073
:1009700008003200e1cf4200020032000170a00006
:1009800024000500810f70000100320004080500fa
:1009900044000500810f700002003a0014000500b9
:1009a0008502e9000000400081c04800fcff3b00d8
:1009b0000170a000240005000004be00e9ff07004c
:1009c0000003be000405be000200be00e5ff0700f4
:1009d000844f7500000006000200be006450e10074
:1009e000050036006420e100020036000968a3001b
:1009f00001003a000800be000160a0004f06780028
:100a00004f05be004f04be0000000600f0ff2f009f
:100a1000f1ff2700f9ff3700889fbe008a9fbe00c4
:100a20008c1f7800e4ff0700ebff330003866c00a7
:100a30006450e100240032006420e100270032000d
:100a40006150e100220032006120e100210032000b
:100a50008b854200eb07b1000134b800003ab800c2
:100a60000804420089844a00013ab8000030b80006
:100a70008880400009014a00040033000000400063
:100a800081804800020149008b05e900c909dd00a9
:100a9000830170000100320013002000c814de0042
:100aa0004814dd004709de001200b200c808de006d
:100ab0000884700085ff070001f0a1000cf0a7007a
:100ac00001f0a000cdff37006120e100cfff320030
:100ad0000801be000200be00f7ff37006150e100d0
:100ae000fcff3a00c9ff37006022b8000602200070
:100af0000000d0008180d2000482d2008582d20022
:100b00000000a0000202520083825a00030031005c
:100b10000202420083824a000000a1000603e900ad
:100b2000f3ff3a0000000600889fbe008a9fbe00c7
:100b300000827000040271000482710026003200fd
:100b40000004be000200be006011b8006b09200066
:100b5000950220000182cf000a0039000541b10052
:100b60000082cf00070039000541b1000982cf00a3
:100b7000040039000541b1000882cf0001003900ae
:100b80000541b10005425200120032000a003b004c
:100b900082817100610164008100d1000080d30076
:100ba0008984d3000884d3008b05e8000442e80060
:100bb000f7ff3a00070037000804440089844c001e
:100bc00000004800818048008b05e9000442e900ec
:100bd000f9ff3a003dff07004f05be004f04be007d
:100be000000006008001780002003700b15978004b
:100bf0000201e9000200e000fcff3a0000000600ec
:100c000080007800010178003104e000fdff3a0027
:100c10000000510000000600881f780002047800e0
:100c200008017800efff0700080040004f0478003b
:100c3000000006000000fa00881f78000004780019
:100c4000ea8157003fb9970088007800c060200013
:100c5000070007000000e000020035000004440027
:100c6000004ceb004f0478000080fa000000060002
:100c70006200fa00889fbe008a1f78000005780095
:100c800081047800020478008300780080f92f0046
:100c90000f004000e30307009a979f00a9979f0069
:100ca0000000eb00b09f9f001885fb008a04fb004a
:100cb0000a05ea004f55de0050022000808f5400e4
:100cc0000d003200e10f55000b003a000a017800d8
:100cd000880078002f9097009f91970003000100f3
:100ce000a0979f000000e0008e0032003f98970020
:100cf0000000e800b09f9f000a044400500220005a
:100d0000808f5400040032000900e000e6ff3a0042
:100d10003f989700840037000000eb00909f9f00f1
:100d2000809f9f00f0979f00e0979f00d0979f00c3
:100d3000c0979f0007003700a19a210001005000d2
:100d400000004000e1992100808040005f989700fa
:100d500011007000d09f9f0088047800090478007b
:100d6000384578008a00fb00a09a2100ae010700f8
:100d70000000e000f0ff3a00a1c2b300814f55002f
:100d80000e003a00cf8897000180e900c08f9f00d5
:100d900010007800c09f9f000000e00005003d00ab
:100da0000000ea00c09f9f005f9897000020a0000d
:100db000d09f9f000904e8000f003700c09f9f00ec
:100dc0000000eb0005003700f2ff2700820f500003
:100dd00002003200ea00b9000080400009047800f7
:100de00088047800b900fb000103b100e98f5000ce
:100df000f5ff3600c09f9f00e0c2b300984f10007f
:100e0000020032000080eb0019003700a0c2b300de
:100e1000d84f100007003a00cf8897000180e90002
:100e2000c08f9f0010007800a09f9f000804e8007a
:100e3000100037000000eb00a09f9f0088007800a2
:100e400005003700f3ff2700830f50000200320037
:100e5000ea00b90000004100010478008800780031
:100e60003101fb000203b100e90f5100f5ff36002c
:100e7000a09f9f00984478008900fb0060992100a2
:100e8000690107000000e000020032000804e800e9
:100e9000010037008044eb00c97f9f0080c6b3008b
:100ea00080cf540004003a0098cf14000a003a00a2
:100eb0006640500006003700c0c6b30080cf540023
:100ec00005003a0098cf140003003a006540400046
:100ed000c07f9f000804e8001801fb00e3fb2f001f
:100ee0008f81410081f92f008f804000a0f92f00f1
:100ef0000f004000100007000000e00009003a0069
:100f0000e1fb2f008f804000a0f92f000f00400070
:100f1000880207000000e000020035000804e80035
:100f200061ff37000080eb004f0578004f04be00e2
:100f30000080fa0000000600889fbe008a1f78002b
:100f400000047800e0c6b300804f5100c8003200b2
:100f500015003c006b405000804f510024003200cf
:100f60000a003c0070405000804f510001013200e7
:100f700065404000804f51006d00320050c2b30008
:100f8000804f510012013a000e01370040c6b300f5
:100f9000804f51001c00320065404000804f5100de
:100fa0000b013a001800370030c7b300804f5100e2
:100fb000f000320007003c0064405000804f5100b8
:100fc0005b0032000040e800804f510000013a0011
:100fd000da00370050c7b300804f51005400320090
:100fe00063404000804f5100f9003a005000370044
:100ff0001181e9008208780078009000808141002a
:1010000092497800f800370028609000c4c6b30009
:10101000844f500007003a0011027800640052002b
:10102000800878001002be004fabde008603780017
:101030001100370014c7b300844f50000300320082
:10104000a4c6b300844f500006003a001102780095
:1010500068005200800878003002be002003be0005
:10106000050037001180e900800878001002780040
:10107000cfa2de00612bb900049cbe000694be0026
:101080002860900081c6b300814f50000d003200ef
:1010900021c6b300814f500004003a000402fb0057
:1010a000cfa2de00612bb9000800370041c7b300b2
:1010b000814f500003003200e6c04000814f5000d5
:1010c00004003a00cfa2de00612bb900049cbe00f0
:1010d0000694be003802be002803be0078009000cf
:1010e000e00f5200e08f5a00e00f5b00e08f5b00e2
:1010f00003003d0080804100d4c2b3000a003700e5
:10110000881090000118a300030032008080410085
:10111000b4c2b300040037000108a3004f0032003e
:101120008080410004c2b300844878004900370041
:1011300028609000c4c6b300844f500006003a00f7
:101140001102780064005200800878001002be008e
:101150006033b8001100370014c7b300844f50004b
:1011600003003200a4c6b300844f500006003a00ca
:101170001102780068005200800878003002be003a
:101180002003be00050037001180e90080087800c8
:10119000100278008002eb006033b800049cbe00af
:1011a0000694be002860900081c6b300814f5000b5
:1011b0000d00320021c6b300814f500004003a00f8
:1011c0000482fb008002eb006033b80008003700a7
:1011d00041c7b300814f500003003200e6c0400019
:1011e000814f500004003a008002eb006033b800e9
:1011f000049cbe000694be00081090000038a300b6
:10120000160032003802be002803be00e00f520074
:10121000e08f5a00e00f5b00e08f5b000f003200b0
:1012200080c7b300804f51000300320080c5b30077
:10123000804f510009003a00780090008080410002
:1012400004c3b300844878000000e80080804100b7
:10125000824878000000e800700498007800900050
:101260008081410063049800824078003e0037008e
:1012700028619000c3c6b3001180e900834f51007c
:10128000220032000a003c00e4c15100834f5100ab
:101290002500320083c1e800834f51001300320063
:1012a000e8c15100834f51001e003a000a00370088
:1012b00043c7b300834f51001b003200e6c1410019
:1012c000834f510018003200e9c15100834f510093
:1012d00014003a00050037008008780010007800fc
:1012e000485c90000848780041003700800878008a
:1012f00010007800680a9000cfa2de00612bb900d0
:101300000498be000690be003900370080087800bf
:101310001000780068099000cf91de000288be00be
:10132000330037001180e900800878001000780051
:10133000680c9000080878002d0037001180e90043
:101340008008780010027800cfa2de00612bb9007f
:10135000049cbe000694be0078009000808141008d
:101360006304980081c7b300080078003a000700c2
:101370001f0037001180e900800878001005780010
:101380006a049800d80c90000900e00004003d00b9
:101390000a0078001afe0700800478000700370072
:1013a000090178008000eb000a00780014000700b3
:1013b0000000e000010032008a045000190c98007f
:1013c0000b00370078009000808141000500370055
:1013d00078009000808141000204e00001003a00a2
:1013e00052c2b300824978000000e80070049800ff
:1013f0000000eb004f0578004f04be00000006001f
:1014000003003700b0cf1000050032000201e900f0
:10141000800178000200e000faff3a0000000500b9
:101420000300780000000600020037000304e0001b
:10143000060032000001780002007800b041780018
:1014400081cf5100f9ff3a00010037000001eb00a5
:101450000200780000000600fc874700889fbe005d
:101460008a9fbe008c9fbe008e1f78000006780009
:1014700080c5b30080cf50000a00320077404000a2
:1014800080cf50000a0032006940400080cf5000f9
:101490000b0032005098210080bf9f00ae0020005a
:1014a0000a0037004297210082bf9f0006003700e4
:1014b0005398210083bf9f008e0020000300370057
:1014c0005498210084bf9f000e0120003c02be0002
:1014d0002c03be000605be000404be0040c6b300d7
:1014e00080cf5000030032006540400080cf5000a4
:1014f0000b003a00e00f5200e08f5a00e00f5b0053
:10150000e08f5b0006003d006000b8006011b8008d
:101510000404500085845800060559008785590049
:10152000e80f57000400320040002000f00f570081
:101530003a003a000100370030002000e00f54006c
:10154000e08f5c00e00f5d00e08f5d0004003a007a
:10155000dc0890008d0120000100e000070032004f
:101560008e00e900888060008fba97008180420079
:1015700091407800f1ef9f007d012000800078000d
:101580008100e900050033008b05d1000a85d300f6
:101590008984d3000884d300f9ff3700089ebe0079
:1015a0000a96be00130037008d06e9008e00e900a0
:1015b000848060000fb997008100410011417800dc
:1015c00083fd2f008d81410082f779008001780032
:1015d0008301e900050033008783d1000683d3002f
:1015e0008582d3000482d300f9ff3700049ebe0039
:1015f0000696be003c02be002c03be00e00f520067
:10160000e08f5a00e00f5b00e08f5b009100340038
:101610000d00e000e4ff3c008e0037002c609000dd
:1016200081c6b300814f50000b00320006003c0021
:101630000004e00008003200e6c05000814f500076
:1016400052003a0004003700c1c6b300814f500079
:101650004e003a00230037000800e00004003a0082
:101660005c0890008d0120000000e00007003200bf
:10167000110009000e84d8000fba97000100420043
:1016800010407800f0ef9f007d012000110009005c
:101690000e84d8000b003700110009000e04d8009a
:1016a0008d06e9008e81b900020454008fb89700be
:1016b000088440009841780082fd2f000d01410010
:1016c00083777900000478000800e000020032000f
:1016d0000d00e000f0ff3c00cfc4de00614db9001a
:1016e00027003700e00f5400e08f5c0004003a0050
:1016f0005c0890008d0120000000e000080032002e
:101700006171b9000800be00570107000fba9700c9
:101710008000420091407800f1ef9f007d012000a1
:101720006171b9000800be00effc07000c00370033
:101730006171b9000800be003c0107008d06e90098
:1017400080f1b900020454008fba97000884420067
:101750009841780082fd2f000d01410083777900c8
:101760000004be00e00f5000e08f5800020032007d
:101770000d00e000eeff3c004fcdde008a05780052
:10178000089ebe000a96be0032003700e00f5400eb
:10179000e08f5c00e00f5d00e08f5d0004003a0028
:1017a0005c0890008d0120000000e0000a0032007b
:1017b0006172b900612bb9000800be000a01be00c9
:1017c000cc0107000fba97008000420091407800da
:1017d000f1ef9f007d0120006172b900612bb9001b
:1017e0000800be000a01be00bb0107000e00370062
:1017f0006172b900612bb9000800be000a01be0089
:10180000c00107008d06e90080f2b900040454000d
:101810008fba9700088442009842780084fd2f0018
:101820000d02420085777a00009ebe000296be003f
:101830003c04be002c05be00e00f5400e08f5c00ad
:10184000e00f5d00e08f5d00020034000d00e0005d
:10185000e7ff3c00e80f570010003a000c10900022
:101860000038a3000d003200f78f560006003e003e
:1018700080fd2f000d004000ef40780000c3b30052
:1018800080cf50000500320002c3b30071fd2f006d
:101890008d8040008d06e90082f77800788116007f
:1018a000120e98006c00900083fd2f008f81410084
:1018b0008d804100cbfc07001c089000dc089000e4
:1018c000810f500006003d0000805000000e98007f
:1018d0000c1090000040a100001698000f00370087
:1018e0000100e0000d003d008c109000f4806000cd
:1018f000f08f500009003a007c099000fc00900035
:10190000810051000c09900082805000008050003e
:101910004240a90001003400000e98004f077800f3
:101920004f06be004f05be004f04be00cf01b10000
:10193000000006000400fa00889fbe008a9fbe00d7
:101940008c1f78000004780001067800f80d9000e4
:10195000780090008085550008089000808555002b
:101960001808900080855500280890008085550053
:101970003808900080855500480890008085550003
:101980000002220090bf9f0000032300a0bf9f0021
:10199000081090000028a30015003a000b00e0009a
:1019a000130034000b0578008a047800e20f55001c
:1019b0000100360029002000c801900009017800cc
:1019c000ee8057005800900003000100500498007a
:1019d0000000e0008c003200680890000900400020
:1019e000600c9800090555004240a900eeff3c003c
:1019f000780190000200e0000c003400c801900063
:101a00008c007800580090000300010050049800fa
:101a10008080eb000000e0007c003200e8089000cd
:101a20007800900000804000600c9800880c9000c6
:101a30000900e0001100340009057800e28f54002d
:101a4000010036002a002000c80190000a01780039
:101a5000ec805700580090000300010050049800eb
:101a60000000e00068003200680890000a004000b2
:101a7000600c98008a845400edff3700180990002c
:101a80000200e0000c003400c8019000e800900063
:101a90005800900003000100500498008080eb0083
:101aa0000000e00059003200e8089000180890009b
:101ab00000804000600c9800a80c90000900e00035
:101ac0001100340009057800e28f5400010036004f
:101ad0002a002000c80190000a017800ec8057001d
:101ae0005800900003000100500498000000e0003e
:101af00045003200680890000a004000600c980021
:101b00008a845400edff3700380990000200e0009d
:101b10000e003400e800900018089000808040001b
:101b2000c801900058009000030001005004980084
:101b30008080eb000000e00034003200e8089000f4
:101b40003808900000804000600c9800c80c90009d
:101b50000900e0001100340009057800e28f54000c
:101b6000010036002a002000c80190000a01780018
:101b7000ec805700580090000300010050049800ca
:101b80000000e00020003200680890000a004000d9
:101b9000600c98008a845400edff37000810900014
:101ba0008000eb000028a300180032000b00e000ca
:101bb000160034008b04780009057800e28f540089
:101bc000010036002a002000c80190000a017800b8
:101bd000ee80570058009000030001005004980068
:101be0000000e00008003200680890000a00400091
:101bf000600c98008a8454004240a900eeff3c002b
:101c00008000eb00010037008080eb0001007800cd
:101c10004f0678004f05be004f04be000080fa005a
:101c2000000006000108780000000600839f68009d
:101c30000100e00002003d0060001000e08018009c
:101c40000300e00002003d0060011100e081190086
:101c5000a5fb07004f00e00002003b006000100001
:101c6000e0801800000006009ffb07000400be0093
:101c700000000600889fbe008a9fbe00300442001c
:101c8000b0844a0030054b0090854b006000b100e5
:101c90000898be000a90be000440e10005c8e100bb
:101ca00006d0e10007d8e1000200310068004000e2
:101cb0001008e8004f05be004f04be0000000600fb
:101cc000889fbe008a9fbe003004be002005be0073
:101cd0000418540005985c0006185d0007985d0024
:101ce000110020000440e10005c8e10006d0e10039
:101cf00007d8e100010039008000eb0010881000d7
:101d00004f05be004f04be00000006001200fa009e
:101d1000889fbe008a9fbe008c9fbe00e0b79f00d8
:101d2000f1b79f0082bf9f0093bf9f000605be00d2
:101d30000404be000000eb00d0b79f00c0b79f00b6
:101d4000b0b79f00a0b79f0090b79f000006eb00c0
:101d50005fb19700cfb09700820141003fb097007c
:101d60000200e00004003d00370007007e805700bd
:101d7000c0ff070003003700330007007e805700d4
:101d8000cfff0700dfb697000d00e0000c00350024
:101d90006fb29700ffb297000fbb97009fbb9700f1
:101da00010002000010020006011b8000002720045
:101db0008182720002037300838373001b0007009b
:101dc0000c06e80001042000810f5600e0ff3a00f5
:101dd0000d00e00004003d000802be000a03be0042
:101de0007e805700a3ff07005fa897000000e00077
:101df00005003a001fb29700afb297003fb39700bb
:101e0000cfb39700090007006fb09700ffb09700ad
:101e10000fb997009fb997004f06be004f05be004f
:101e20004f04be000080fa00000006000100070019
:101e300000000600a4b79f00b5b79f00c6b79f007b
:101e4000d7b79f00000006004f09de0082817100b5
:101e5000b3b79f004f01de00818040008280700098
:101e6000a1b79f008fb097004f09de00000040002f
:101e70000200700090b79f007fa897004f01de001e
:101e8000818040008280700081b79f000d000700b4
:101e90004f3ade000000400004007000f0af9f00e9
:101ea000080007000402420085824a0006034b0036
:101eb00087834b00dfff07000802be000a03be0055
:101ec000000006002fb29700bfb297004fb39700f3
:101ed000dfb3970000000600881f7800180020007c
:101ee000881f780089ff07008f87e9004f0478007a
:101ef00000000600801feb0084ff07008f87e900c9
:101f000000000600889fbe008a9fbe00e00f5000c0
:101f1000e08f5800e00f5900e08f59000c003d00a1
:101f20006044b8006055b8000000540081805c0037
:101f300002015d0083815d0018002000150007008c
:101f400008003d00180007000004eb000500370002
:101f50000004eb000f00070002003d001200070024
:101f600018002000dcff07000800e0000600320037
:101f70006022b8006033b8000000520081805a002f
:101f800002015b0083815b004f05be004f04be0071
:101f900000000600e00f5200e08f5a00e00f5b00e7
:101fa000e08f5b00000006006044b8006055b80098
:101fb0000402540085825c0006035d0087835d0097
:101fc00000000600889fbe008a9fbe008c1f78001c
:101fd000e00f5000e08f5800e00f5900e08f5900eb
:101fe0000d003d006044b8006055b800000054008a
:101ff00081805c0002015d0083815d001c00200087
:102000000820e10009a8e1000ab0e1000bb8e100f6
:102010000d003d00080037000006eb00e00f520005
:10202000e08f5a00e00f5b00e08f5b0006003d0090
:102030006044b8006055b8000402540085825c001a
:1020400006035d0087835d00aaff07000c00e00027
:10205000060032006022b8006033b8000000520071
:1020600081805a0002015b0083815b004f0678008b
:0c2070004f05be004f04be00000006003b
:020000040000fa
:10207c004e4f00005f450000564500004e540000d6
:10208c0000460000414900004c5f0000455600002e
:10209c00454e000054000000494e00004954000019
:1020ac005f450000564500004e54000000450000fe
:1020bc004e540000525900005f4500005645000088
:1020cc004e5400000045000058490000545f0000c9
:1020dc0045560000454e00005400000054490000d5
:1020ec004d450000555000005f450000564500006e
:1020fc004e54000000540000465400005f54000091
:10210c004f550000434800005f4500005645000055
:10211c004e54000000460000534d00005f54000078
:10212c00454d0000504c000041540000450000009b
:10213c00696e000069740000007300006f6d000090
:10214c0065530000746100007465000000610000bc
:10215c006e6f00007468000065720000537400001c
:10216c006174000065000000796500007441000096
:10217c006e6f0000746800006572000053740000fc
:10218c006174000065000000000000000000000009
:10219c00000000003e5b00004f5b00003e000000b2
:1021ac003e6b00004f6b00003e0000001c3e000028
:1021bc007c3e00001c000000183c00007e3c00002f
:1021cc00180000001c5700007d5700001c00000088
:1021dc001c5e00007f5e00001c0000000018000068
:1021ec003c18000000000000ffe70000c3e70000ff
:1021fc00ff00000000180000241800000000000080
:10220c00ffe70000dbe70000ff00000030480000a3
:10221c003a0600000e000000262900007929000073
:10222c0026000000407f00000505000007000000ac
:10223c00407f0000052500003f0000005a3c0000d4
:10224c00e73c00005a0000007f3e00001c1c000010
:10225c0008000000081c00001c3e00007f0000006d
:10226c00142200007f220000140000005f5f0000b9
:10227c00005f00005f000000060900007f01000005
:10228c007f00000000660000899500006a000000d5
:10229c0060600000606000006000000094a200001c
:1022ac00ffa2000094000000080400007e0400005f
:1022bc0008000000102000007e200000100000002c
:1022cc00080800002a1c000008000000081c000080
:1022dc002a080000080000001e100000101000006a
:1022ec00100000000c1e00000c1e00000c00000072
:1022fc00303800003e38000030000000060e0000b0
:10230c003e0e00000600000000000000000000006f
:10231c0000000000000000005f0000000000000052
:10232c00000700000007000000000000147f000000
:10233c00147f000014000000242a00007f2a0000f3
:10234c00120000002313000008640000620000006b
:10235c003649000056200000500000000008000024
:10236c000703000000000000001c000022410000d8
:10237c000000000000410000221c000000000000d2
:10238c002a1c00007f1c00002a0000000808000026
:10239c003e080000080000000080000070300000c3
:1023ac0000000000080800000808000008000000f9
:1023bc000000000060600000000000002010000021
:1023cc0008040000020000003e51000049450000d6
:1023dc003e000000004200007f40000000000000b2
:1023ec0072490000494900004600000021410000ec
:1023fc00494d00003300000018140000127f00004b
:10240c001000000027450000454500003900000081
:10241c003c4a000049490000310000004121000005
:10242c00110900000700000036490000494900006e
:10243c003600000046490000492900001e0000003b
:10244c00000000001400000000000000004000002c
:10245c0034000000000000000008000014220000fe
:10246c0041000000141400001414000014000000bb
:10247c0000410000221400000800000002010000ce
:10248c0059090000060000003e4100005d590000a3
:10249c004e0000007c120000111200007c000000b5
:1024ac007f49000049490000360000003e41000011
:1024bc0041410000220000007f410000414100002a
:1024cc003e0000007f490000494900004100000027
:1024dc007f09000009090000010000003e410000d6
:1024ec0041510000730000007f0800000808000044
:1024fc007f000000004100007f4100000000000050
:10250c0020400000413f0000010000007f08000057
:10251c0014220000410000007f40000040400000f9
:10252c00400000007f0200001c0200007f00000041
:10253c007f040000081000007f0000003e410000f6
:10254c00414100003e0000007f0900000909000025
:10255c00060000003e410000512100005e0000001a
:10256c007f090000192900004600000026490000e0
:10257c004949000032000000030100007f01000007
:10258c00030000003f400000404000003f000000fe
:10259c001f200000402000001f0000003f400000f2
:1025ac00384000003f0000006314000008140000d5
:1025bc006300000003040000780400000300000026
:1025cc0061590000494d000043000000007f0000ed
:1025dc00414100004100000002040000081000000e
:1025ec002000000000410000414100007f0000007d
:1025fc000402000001020000040000004040000042
:10260c0040400000400000000003000007080000ec
:10261c00000000002054000054780000400000002e
:10262c007f280000444400003800000038440000bb
:10263c0044440000280000003844000044280000f6
:10264c007f000000385400005454000018000000b3
:10265c00000800007e0900000200000018a4000021
:10266c00a49c0000780000007f0800000404000017
:10267c0078000000004400007d40000000000000d5
:10268c0020400000403d0000000000007f100000d2
:10269c002844000000000000004100007f400000c2
:1026ac00000000007c0400007804000078000000aa
:1026bc007c0800000404000078000000384400008e
:1026cc004444000038000000fc18000024240000e2
:1026dc00180000001824000024180000fc00000062
:1026ec007c080000040400000800000048540000ae
:1026fc005454000024000000040400003f44000077
:10270c00240000003c400000402000007c00000041
:10271c001c200000402000001c0000003c40000079
:10272c00304000003c00000044280000102800004d
:10273c00440000004c900000909000007c000000d1
:10274c0044640000544c00004400000000080000e9
:10275c00364100000000000000000000770000007f
:10276c0000000000004100003608000000000000de
:10277c000201000002040000020000003c260000e0
:10278c00232600003c0000001ea10000a1610000f7
:10279c00120000003a400000402000007a000000c7
:1027ac003854000054550000590000002155000019
:1027bc0055790000410000002254000054780000bc
:1027cc004200000021550000547800004000000039
:1027dc002054000055790000400000000c1e000041
:1027ec0052720000120000003955000055550000cf
:1027fc0059000000395400005454000059000000e6
:10280c00395500005454000058000000000000002e
:10281c00457c00004100000000020000457d0000e6
:10282c004200000000010000457c00004000000058
:10283c007d120000111200007d000000f028000045
:10284c0025280000f00000007c54000055450000d5
:10285c000000000020540000547c000054000000d4
:10286c007c0a0000097f000049000000324900008a
:10287c0049490000320000003a4400004444000082
:10288c003a000000324a00004848000030000000c6
:10289c003a410000412100007a0000003a42000059
:1028ac004020000078000000009d0000a0a0000067
:1028bc007d0000003d420000424200003d0000004f
:1028cc003d400000404000003d0000003c24000062
:1028dc00ff24000024000000487e00004943000053
:1028ec00660000002b2f0000fc2f00002b000000c6
:1028fc00ff09000029f6000020000000c08800003d
:10290c007e090000030000002054000054790000f0
:10291c004100000000000000447d00004100000068
:10292c0030480000484a00003200000038400000e7
:10293c00402200007a000000007a00000a0a000021
:10294c00720000007d0d0000193100007d000000b8
:10295c0026290000292f000028000000262900004d
:10296c002929000026000000304800004d400000de
:10297c0020000000380800000808000008000000d3
:10298c000808000008080000380000002f100000a4
:10299c00c8ac0000ba0000002f1000002834000062
:1029ac00fa000000000000007b00000000000000a6
:1029bc00081400002a140000220000002214000059
:1029cc002a1400000800000055000000550000000b
:1029dc0055000000aa550000aa550000aa000000ee
:1029ec00ff550000ff550000ff0000000000000034
:1029fc0000ff0000000000001010000010ff00009d
:102a0c00000000001414000014ff0000000000007f
:102a1c0010100000ff000000ff000000101000006c
:102a2c00f0100000f00000001414000014fc000072
:102a3c000000000014140000f7000000ff0000006c
:102a4c0000000000ff000000ff0000001414000054
:102a5c00f4040000fc000000141400001710000027
:102a6c001f000000101000001f1000001f000000cd
:102a7c0014140000141f00000000000010100000cf
:102a8c0010f000000000000000000000001f00001b
:102a9c001000000010100000101f000010000000bb
:102aac001010000010f000001000000000000000ea
:102abc0000ff0000100000001010000010100000bb
:102acc00100000001010000010ff000010000000ab
:102adc000000000000ff00001400000000000000d7
:102aec00ff000000ff000000000000001f100000ad
:102afc001700000000000000fc040000f4000000bf
:102b0c00141400001710000017000000141400002b
:102b1c00f4040000f400000000000000ff000000be
:102b2c00f70000001414000014140000140000003e
:102b3c0014140000f7000000f7000000141400004b
:102b4c001417000014000000101000001f100000eb
:102b5c001f0000001414000014f400001400000006
:102b6c0010100000f0100000f00000000000000049
:102b7c001f1000001f00000000000000001f0000dc
:102b8c00140000000000000000fc00001400000015
:102b9c0000000000f0100000f00000001010000019
:102bac00ff100000ff0000001414000014ff0000d0
:102bbc001400000010100000101f000000000000a6
:102bcc000000000000f0000010000000ffff0000fb
:102bdc00ffff0000ff000000f0f00000f0f000002c
:102bec00f0000000ffff0000ff00000000000000ec
:102bfc000000000000ff0000ff0000000f0f0000ad
:102c0c000f0f00000f000000384400004438000093
:102c1c0044000000fc4a00004a4a00003400000056
:102c2c007e0200000206000006000000027e00008a
:102c3c00027e0000020000006355000049410000c4
:102c4c006300000038440000443c00000400000015
:102c5c00407e0000201e0000200000000602000044
:102c6c007e0200000200000099a50000e7a500000c
:102c7c00990000001c2a0000492a00001c000000da
:102c8c004c720000017200004c000000304a000041
:102c9c004d4d000030000000304800007848000026
:102cac0030000000bc6200005a4600003d000000ed
:102cbc003e49000049490000000000007e01000070
:102ccc00010100007e0000002a2a00002a2a0000d0
:102cdc002a000000444400005f440000440000004f
:102cec00405100004a4400004000000040440000f5
:102cfc004a5100004000000000000000ff010000ed
:102d0c0003000000e0800000ff0000000000000055
:102d1c00080800006b6b0000080000003612000071
:102d2c003624000036000000060f0000090f0000da
:102d3c000600000000000000181800000000000051
:102d4c0000000000101000000000000030400000e7
:102d5c00ff01000001000000001f00000101000045
:102d6c001e000000001900001d17000012000000da
:102d7c00003c00003c3c00003c0000000000000057
:102d8c000000000000000000574500004c4300000c
:102d9c004f4d000045200000544f0000205400000f
:102dac0048450000204500002d4d00004f54000008
:102dbc004f000000546f0000756300006820000095
:102dcc00616e000079770000686500007265000094
:102ddc00207400006f200000776100006b6500001c
:102dec002075000070200000746800006520000051
:102dfc00626900006b650000004500006e74000005
:102e0c0065720000205300006563000072650000cd
:102e1c00742000005061000073730000636f0000a9
:102e2c0064650000004300006f6e000067720000d4
:102e3c0061740000732c0000207900006f75000095
:102e4c00207500006e6c00006f6300006b65000065
:102e5c0064200000746800006520000062690000b6
:102e6c006b6500002100000001020000030400005b
:102e7c00050600000708000009010000536500006a
:102e8c007276000069630000653a0000202500009e
:102e9c00730900005374000061740000653a00006f
:102eac00202500007309000045760000656e0000c7
:102ebc00743a0000202500007320000025640000f7
:102ecc000a00000031000000320000003300000056
:102edc003400000035000000360000003700000010
:102eec0038000000390000002020000020200000e5
:102efc00202000002020000020200000000a0000fc
:102f0c0054720000616e000073690000737400005d
:102f1c00696f00006e6900006e6700000a00000017
:102f2c000000000000000000000000003e5b0000fc
:102f3c004f5b00003e0000003e6b00004f6b00003a
:102f4c003e0000001c3e00007c3e00001c00000007
:102f5c00183c00007e3c0000180000001c570000cc
:102f6c007d5700001c0000001c5e00007f5e00000e
:102f7c001c000000001800003c18000000000000bd
:102f8c00ffe70000c3e70000ff000000001800008e
:102f9c002418000000000000ffe70000dbe7000041
:102fac00ff000000304800003a0600000e00000050
:102fbc00262900007929000026000000407f00002f
:102fcc000505000007000000407f000005250000fb
:102fdc003f0000005a3c0000e73c00005a00000093
:102fec007f3e00001c1c000008000000081c0000b4
:102ffc001c3e00007f000000142200007f22000015
:10300c00140000005f5f0000005f00005f00000024
:10301c00060900007f0100007f0000000066000030
:10302c00899500006a00000060600000606000008c
:10303c006000000094a20000ffa2000094000000b9
:10304c00080400007e0400000800000010200000ae
:10305c007e20000010000000080800002a1c000060
:10306c0008000000081c00002a08000008000000ee
:10307c001e10000010100000100000000c1e0000bc
:10308c000c1e00000c000000303800003e38000020
:10309c0030000000060e00003e0e0000060000008e
:1030ac000000000000000000000000000000000014
:1030bc005f00000000000000000700000007000097
:1030cc0000000000147f0000147f000014000000ba
:1030dc00242a00007f2a00001200000023130000a5
:1030ec000864000062000000364900005620000011
:1030fc005000000000080000070300000000000062
:10310c00001c0000224100000000000000410000f3
:10311c00221c0000000000002a1c00007f1c000084
:10312c002a000000080800003e080000080000000b
:10313c000080000070300000000000000808000053
:10314c00080800000800000000000000606000009b
:10315c000000000020100000080400000200000025
:10316c003e510000494500003e00000000420000b6
:10317c007f40000000000000724900004949000037
:10318c004600000021410000494d000033000000c2
:10319c0018140000127f00001000000027450000ea
:1031ac0045450000390000003c4a00004949000038
:1031bc00310000004121000011090000070000004f
:1031cc00364900004949000036000000464900001d
:1031dc00492900001e00000000000000140000003f
:1031ec00000000000040000034000000000000005f
:1031fc00000800001422000041000000141400001c
:10320c0014140000140000000041000022140000ff
:10321c00080000000201000059090000060000002f
:10322c003e4100005d5900004e0000007c12000081
:10323c00111200007c0000007f4900004949000089
:10324c00360000003e410000414100002200000019
:10325c007f410000414100003e0000007f4900001a
:10326c0049490000410000007f09000009090000e5
:10327c00010000003e4100004151000073000000bd
:10328c007f080000080800007f00000000410000db
:10329c007f4100000000000020400000413f000082
:1032ac00010000007f080000142200004100000013
:1032bc007f40000040400000400000007f02000002
:1032cc001c0200007f0000007f04000008100000ba
:1032dc007f0000003e410000414100003e00000024
:1032ec007f09000009090000060000003e410000b3
:1032fc00512100005e0000007f0900001929000028
:10330c004600000026490000494900003200000038
:10331c00030100007f010000030000003f4000009b
:10332c00404000003f0000001f2000004020000033
:10333c001f0000003f400000384000003f0000002c
:10334c006314000008140000630000000304000074
:10335c00780400000300000061590000494d000092
:10336c0043000000007f00004141000041000000cc
:10337c0002040000081000002000000000410000c2
:10338c00414100007f000000040200000102000027
:10339c0004000000404000004040000040000000dd
:1033ac00000300000708000000000000205400008b
:1033bc0054780000400000007f28000044440000c6
:1033cc00380000003844000044440000280000008d
:1033dc0038440000442800007f00000038540000ee
:1033ec005454000018000000000800007e09000082
:1033fc000200000018a40000a49c0000780000004b
:10340c007f08000004040000780000000044000065
:10341c007d4000000000000020400000403d000006
:10342c00000000007f100000284400000000000095
:10343c00004100007f400000000000007c04000000
:10344c0078040000780000007c08000004040000f0
:10345c0078000000384400004444000038000000ac
:10346c00fc180000242400001800000018240000a0
:10347c0024180000fc0000007c080000040400007c
:10348c0008000000485400005454000024000000c0
:10349c00040400003f440000240000003c400000f5
:1034ac00402000007c0000001c2000004020000098
:1034bc001c0000003c400000304000003c000000bc
:1034cc004428000010280000440000004c9000002c
:1034dc00909000007c00000044640000544c0000fc
:1034ec00440000000008000036410000000000000d
:1034fc000000000077000000000000000041000008
:10350c003608000000000000020100000204000068
:10351c00020000003c260000232600003c000000b6
:10352c001ea10000a1610000120000003a40000042
:10353c00402000007a000000385400005455000070
:10354c005900000021550000557900004100000091
:10355c002254000054780000420000002155000065
:10356c005478000040000000205400005579000001
:10357c00400000000c1e00005272000012000000ff
:10358c003955000055550000590000003954000011
:10359c0054540000590000003955000054540000e8
:1035ac005800000000000000457c000041000000b5
:1035bc0000020000457d00004200000000010000f8
:1035cc00457c0000400000007d120000111200003c
:1035dc007d000000f028000025280000f00000000d
:1035ec007c540000554500000000000020540000f1
:1035fc00547c0000540000007c0a0000097f00008d
:10360c004900000032490000494900003200000026
:10361c003a440000444400003a000000324a0000e2
:10362c0048480000300000003a41000041210000f1
:10363c007a0000003a4200004020000078000000b0
:10364c00009d0000a0a000007d0000003d42000095
:10365c00424200003d0000003d40000040400000a0
:10366c003d0000003c240000ff240000240000006a
:10367c00487e000049430000660000002b2f00002c
:10368c00fc2f00002b000000ff09000029f60000b1
:10369c0020000000c08800007e090000030000002c
:1036ac00205400005479000041000000000000008c
:1036bc00447d00004100000030480000484a0000f2
:1036cc003200000038400000402200007a00000068
:1036dc00007a00000a0a0000720000007d0d000054
:1036ec00193100007d00000026290000292f000060
:1036fc0028000000262900002929000026000000cf
:10370c00304800004d400000200000003808000048
:10371c000808000008000000080800000808000065
:10372c00380000002f100000c8ac0000ba000000e8
:10373c002f10000028340000fa00000000000000e8
:10374c007b00000000000000081400002a14000098
:10375c0022000000221400002a14000008000000bf
:10376c00550000005500000055000000aa5500004f
:10377c00aa550000aa000000ff550000ff550000ec
:10378c00ff0000000000000000ff0000000000002f
:10379c001010000010ff00000000000014140000c6
:1037ac0014ff00000000000010100000ff000000db
:1037bc00ff00000010100000f0100000f0000000ee
:1037cc001414000014fc000000000000141400008d
:1037dc00f7000000ff00000000000000ff000000e8
:1037ec00ff00000014140000f4040000fc000000b2
:1037fc0014140000171000001f000000101000002f
:10380c001f1000001f00000014140000141f000003
:10381c00000000001010000010f00000000000007c
:10382c0000000000001f000010000000101000003d
:10383c00101f0000100000001010000010f000001d
:10384c00100000000000000000ff0000100000004d
:10385c0010100000101000001000000010100000ec
:10386c0010ff0000100000000000000000ff00002e
:10387c001400000000000000ff000000ff0000002a
:10388c00000000001f1000001700000000000000e6
:10389c00fc040000f40000001414000017100000d9
:1038ac001700000014140000f4040000f4000000e1
:1038bc0000000000ff000000f700000014140000de
:1038cc00141400001400000014140000f700000091
:1038dc00f70000001414000014170000140000007e
:1038ec00101000001f1000001f0000001414000036
:1038fc0014f400001400000010100000f010000080
:10390c00f0000000000000001f1000001f0000006d
:10391c0000000000001f0000140000000000000068
:10392c0000fc00001400000000000000f01000007b
:10393c00f000000010100000ff100000ff0000005d
:10394c001414000014ff00001400000010100000fc
:10395c00101f0000000000000000000000f000003c
:10396c0010000000ffff0000ffff0000ff00000040
:10397c00f0f00000f0f00000f0000000ffff00008d
:10398c00ff000000000000000000000000ff00002d
:10399c00ff0000000f0f00000f0f00000f000000d1
:1039ac00384400004438000044000000fc4a000089
:1039bc004a4a0000340000007e02000002060000ab
:1039cc0006000000027e0000027e000002000000e3
:1039dc0063550000494100006300000038440000ba
:1039ec00443c000004000000407e0000201e00004b
:1039fc0020000000060200007e0200000200000011
:103a0c0099a50000e7a50000990000001c2a000001
:103a1c00492a00001c0000004c72000001720000da
:103a2c004c000000304a00004d4d000030000000fa
:103a3c00304800007848000030000000bc620000f4
:103a4c005a4600003d0000003e4900004949000074
:103a5c00000000007e010000010100007e0000005b
:103a6c002a2a00002a2a00002a00000044440000f0
:103a7c005f44000044000000405100004a44000034
:103a8c0040000000404400004a510000400000008b
:103a9c0000000000ff01000003000000e0800000b7
:103aac00ff00000000000000080800006b6b000025
:103abc00080000003612000036240000360000001a
:103acc00060f0000090f00000600000000000000b7
:103adc00181800000000000000000000101000008a
:103aec000000000030400000ff0100000100000059
:103afc00001f0000010100001e0000000019000062
:103b0c001d17000012000000003c00003c3c0000af
:103b1c003c0000000000000000000000000000005d
:103b2c0001b90000ff0000008300000057000000f6
:103b3c00b300000080000000000000000600000040
:103b4c0006000000b600000025000000b0000000d8
:103b5c0068000000cc00000005000000b10000006f
:103b6c0000000000150000001c0000001c000000fc
:103b7c0083000000aa000000c000000050000000fc
:103b8c0050000000010000003c0000001e0000007e
:103b9c0008000000b400000002000000400000001b
:103bac00000000002a0000002a0000000d000000a8
:103bbc0078000000e0000000020000000a00000095
:103bcc00110000001d000000230000003500000063
:103bdc00410000004b0000004b00000042000000c0
:103bec003a000000270000001b0000000800000045
:103bfc000900000003000000020000000a000000a1
:103c0c00110000001d000000230000003500000022
:103c1c00410000004b0000004b000000420000007f
:103c2c003a000000270000001b0000000800000004
:103c3c00090000000300000000000000010000006b
:103c4c003a0000005500000036350000000000006e
:103c5c0044000000000000000200000011290000d8
:103c6c002a0000000000000000000000010000001d
:103c7c003f0000002b0000000000000000000000ce
:103c8c0001000000df0000002c000000000000001c
:103c9c0000000000000000003e5b00004f5b0000d5
:103cac003e0000003e6b00004f6b00003e00000029
:103cbc001c3e00007c3e00001c000000183c000074
:103ccc007e3c0000180000001c5700007d570000cf
:103cdc001c0000001c5e00007f5e00001c00000049
:103cec00001800003c18000000000000ffe7000076
:103cfc00c3e70000ff0000000018000024180000bb
:103d0c0000000000ffe70000dbe70000ff00000000
:103d1c00304800003a0600000e0000002629000082
:103d2c007929000026000000407f000005050000f6
:103d3c0007000000407f0000052500003f00000048
:103d4c005a3c0000e73c00005a0000007f3e000097
:103d5c001c1c000008000000081c00001c3e000099
:103d6c007f000000142200007f22000014000000dd
:103d7c005f5f0000005f00005f00000006090000ac
:103d8c007f0100007f0000000066000089950000a4
:103d9c006a000000606000006060000060000000cd
:103dac0094a20000ffa20000940000000804000090
:103dbc007e04000008000000102000007e2000009f
:103dcc0010000000080800002a1c00000800000079
:103ddc00081c00002a080000080000001e1000004b
:103dec0010100000100000000c1e00000c1e000043
:103dfc000c000000303800003e380000300000009d
:103e0c00060e00003e0e0000060000000000000040
:103e1c000000000000000000000000005f00000037
:103e2c000000000000070000000700000000000078
:103e3c00147f0000147f000014000000242a0000ee
:103e4c007f2a000012000000231300000864000009
:103e5c0062000000364900005620000050000000af
:103e6c00000800000703000000000000001c000018
:103e7c00224100000000000000410000221c000054
:103e8c00000000002a1c00007f1c00002a0000001b
:103e9c00080800003e080000080000000080000038
:103eac007030000000000000080800000808000046
:103ebc00080000000000000060600000000000002e
:103ecc002010000008040000020000003e51000019
:103edc00494500003e000000004200007f40000009
:103eec000000000072490000494900004600000033
:103efc0021410000494d000033000000181400005f
:103f0c00127f00001000000027450000454500000e
:103f1c00390000003c4a0000494900003100000013
:103f2c004121000011090000070000003649000083
:103f3c0049490000360000004649000049290000ac
:103f4c001e00000000000000140000000000000033
:103f5c0000400000340000000000000000080000d9
:103f6c00142200004100000014140000141400007e
:103f7c0014000000004100002214000008000000a2
:103f8c000201000059090000060000003e4100003b
:103f9c005d5900004e0000007c1200001112000060
:103fac007c0000007f4900004949000036000000f9
:103fbc003e41000041410000220000007f41000012
:103fcc00414100003e0000007f49000049490000cb
:103fdc00410000007f0900000909000001000000f9
:103fec003e41000041510000730000007f080000ba
:103ffc00080800007f000000004100007f41000025
:10400c000000000020400000413f000001000000c3
:10401c007f08000014220000410000007f400000d7
:10402c0040400000400000007f0200001c02000025
:10403c007f0000007f040000081000007f000000db
:10404c003e410000414100003e0000007f0900009d
:10405c0009090000060000003e410000512100004b
:10406c005e0000007f0900001929000046000000d6
:10407c0026490000494900003200000003010000fd
:10408c007f010000030000003f40000040400000a2
:10409c003f0000001f200000402000001f00000017
:1040ac003f400000384000003f0000006314000057
:1040bc0008140000630000000304000078040000f2
:1040cc000300000061590000494d0000430000004e
:1040dc00007f00004141000041000000020400008c
:1040ec0008100000200000000041000041410000c9
:1040fc007f00000004020000010200000400000028
:10410c004040000040400000400000000003000060
:10411c000708000000000000205400005478000044
:10412c00400000007f2800004444000038000000dc
:10413c0038440000444400002800000038440000cb
:10414c00442800007f000000385400005454000044
:10415c0018000000000800007e09000002000000aa
:10416c0018a40000a49c0000780000007f08000048
:10417c000404000078000000004400007d400000b2
:10418c000000000020400000403d00000000000046
:10419c007f100000284400000000000000410000d7
:1041ac007f400000000000007c0400007804000048
:1041bc00780000007c080000040400007800000077
:1041cc00384400004444000038000000fc18000093
:1041dc0024240000180000001824000024180000fb
:1041ec00fc0000007c080000040400000800000033
:1041fc004854000054540000240000000404000043
:10420c003f440000240000003c400000402000001f
:10421c007c0000001c200000402000001c0000005e
:10422c003c400000304000003c00000044280000ee
:10423c0010280000440000004c90000090900000fa
:10424c007c00000044640000544c0000440000005a
:10425c0000080000364100000000000000000000d3
:10426c00770000000000000000410000360800004c
:10427c000000000002010000020400000200000027
:10428c003c260000232600003c0000001ea100007c
:10429c00a1610000120000003a4000004020000024
:1042ac007a000000385400005455000059000000fa
:1042bc0021550000557900004100000022540000f7
:1042cc005478000042000000215500005478000092
:1042dc004000000020540000557900004000000010
:1042ec000c1e000052720000120000003955000034
:1042fc00555500005900000039540000545400007a
:10430c0059000000395500005454000058000000ba
:10431c0000000000457c000041000000000200008d
:10432c00457d00004200000000010000457c0000bb
:10433c00400000007d120000111200007d00000002
:10434c00f028000025280000f00000007c5400003c
:10435c00554500000000000020540000547c000073
:10436c00540000007c0a0000097f00004900000096
:10437c003249000049490000320000003a44000074
:10438c00444400003a000000324a00004848000053
:10439c00300000003a410000412100007a0000008a
:1043ac003a4200004020000078000000009d000010
:1043bc00a0a000007d0000003d4200004242000031
:1043cc003d0000003d400000404000003d0000006a
:1043dc003c240000ff24000024000000487e000064
:1043ec0049430000660000002b2f0000fc2f00004a
:1043fc002b000000ff09000029f60000200000003f
:10440c00c08800007e09000003000000205400005a
:10441c00547900004100000000000000447d0000c1
:10442c004100000030480000484a00003200000003
:10443c0038400000402200007a000000007a0000a2
:10444c000a0a0000720000007d0d00001931000006
:10445c007d00000026290000292f00002800000004
:10446c002629000029290000260000003048000001
:10447c004d40000020000000380800000808000033
:10448c0008000000080800000808000038000000c0
:10449c002f100000c8ac0000ba0000002f10000064
:1044ac0028340000fa000000000000007b0000002f
:1044bc0000000000081400002a1400002200000074
:1044cc00221400002a14000008000000550000000f
:1044dc005500000055000000aa550000aa55000028
:1044ec00aa000000ff550000ff550000ff0000006f
:1044fc000000000000ff0000000000001010000091
:10450c0010ff0000000000001414000014ff000055
:10451c000000000010100000ff000000ff00000071
:10452c0010100000f0100000f00000001414000047
:10453c0014fc00000000000014140000f700000040
:10454c00ff00000000000000ff000000ff00000062
:10455c0014140000f4040000fc000000141400000b
:10456c00171000001f000000101000001f100000aa
:10457c001f00000014140000141f000000000000b5
:10458c001010000010f000000000000000000000ff
:10459c00001f00001000000010100000101f000091
:1045ac00100000001010000010f0000010000000bf
:1045bc000000000000ff00001000000010100000c0
:1045cc0010100000100000001010000010ff000080
:1045dc00100000000000000000ff000014000000ac
:1045ec0000000000ff000000ff00000000000000c1
:1045fc001f1000001700000000000000fc04000069
:10460c00f400000014140000171000001700000044
:10461c0014140000f4040000f4000000000000007a
:10462c00ff000000f7000000141400001414000038
:10463c001400000014140000f7000000f700000044
:10464c0014140000141700001400000010100000d7
:10465c001f1000001f0000001414000014f40000d0
:10466c001400000010100000f0100000f00000001a
:10467c00000000001f1000001f00000000000000e0
:10468c00001f0000140000000000000000fc0000ef
:10469c001400000000000000f0100000f00000000a
:1046ac0010100000ff100000ff00000014140000a8
:1046bc0014ff00001400000010100000101f000078
:1046cc00000000000000000000f0000010000000de
:1046dc00ffff0000ffff0000ff000000f0f00000f3
:1046ec00f0f00000f0000000ffff0000ff000000f1
:1046fc00000000000000000000ff0000ff000000b0
:10470c000f0f00000f0f00000f00000038440000d6
:10471c004438000044000000fc4a00004a4a0000f3
:10472c00340000007e0200000206000006000000bb
:10473c00027e0000027e00000200000063550000b3
:10474c00494100006300000038440000443c000074
:10475c0004000000407e0000201e0000200000002d
:10476c00060200007e0200000200000099a5000075
:10477c00e7a50000990000001c2a0000492a00004f
:10478c001c0000004c720000017200004c00000084
:10479c00304a00004d4d0000300000003048000051
:1047ac007848000030000000bc6200005a4600004f
:1047bc003d0000003e490000494900000000000097
:1047cc007e010000010100007e0000002a2a00008a
:1047dc002a2a00002a000000444400005f44000024
:1047ec0044000000405100004a440000400000001a
:1047fc00404400004a51000040000000000000004e
:10480c00ff01000003000000e0800000ff0000003a
:10481c0000000000080800006b6b0000080000009e
:10482c00361200003624000036000000060f00008f
:10483c00090f00000600000000000000181800001e
:10484c00000000000000000010100000000000003c
:10485c0030400000ff01000001000000001f0000bc
:10486c00010100001e000000001900001d170000cf
:10487c0012000000003c00003c3c00003c0000002a
:10488c000000000000000000000000004e4f00007f
:10489c005f450000564500004e54000000460000e5
:1048ac00414900004c5f000045560000454e000099
:1048bc0054000000494e0000495400005f450000c0
:1048cc00564500004e540000004500004e540000b8
:1048dc00525900005f450000564500004e54000040
:1048ec000045000058490000545f00004556000088
:1048fc00454e000054000000544900004d45000096
:10490c00555000005f450000564500004e54000015
:10491c0000540000465400005f5400004f55000046
:10492c00434800005f450000564500004e5400000f
:10493c0000460000534d00005f540000454d000040
:10494c00504c000041540000450000000a0a0000d1
:10495c000a680000656c00006c6f00002074000099
:10496c006869000073200000697300002074000067
:10497c00686500002074000065730000742000005e
:10498c00707200006f670000726100006d20000003
:10499c00666f000072200000746800006520000043
:1049ac00546500006d7000006c61000074650000bf
:1049bc0020500000726f00006a65000063740000f4
:1049cc000a000000000000000000000000000000d1
:1049dc003e5b00004f5b00003e0000003e6b0000a1
:1049ec004f6b00003e0000001c3e00007c3e0000af
:1049fc001c000000183c00007e3c00001800000069
:104a0c001c5700007d5700001c0000001c5e0000bd
:104a1c007f5e00001c000000001800003c18000025
:104a2c0000000000ffe70000c3e70000ff000000eb
:104a3c00001800002418000000000000ffe7000030
:104a4c00dbe70000ff000000304800003a060000e1
:104a5c000e00000026290000792900002600000025
:104a6c00407f00000505000007000000407f0000ab
:104a7c00052500003f0000005a3c0000e73c000008
:104a8c005a0000007f3e00001c1c000008000000c3
:104a9c00081c00001c3e00007f00000014220000d7
:104aac007f220000140000005f5f0000005f000028
:104abc005f000000060900007f0100007f0000007d
:104acc0000660000899500006a000000606000002c
:104adc00606000006000000094a20000ffa20000d3
:104aec0094000000080400007e0400000800000090
:104afc00102000007e2000001000000008080000bc
:104b0c002a1c000008000000081c00002a080000f5
:104b1c00080000001e100000101000001000000023
:104b2c000c1e00000c1e00000c00000030380000b1
:104b3c003e38000030000000060e00003e0e000063
:104b4c000600000000000000000000000000000053
:104b5c00000000005f0000000000000000070000e3
:104b6c000007000000000000147f0000147f00000c
:104b7c0014000000242a00007f2a0000120000000c
:104b8c002313000008640000620000003649000096
:104b9c005620000050000000000800000703000031
:104bac0000000000001c000022410000000000007a
:104bbc0000410000221c0000000000002a1c000024
:104bcc007f1c00002a000000080800003e080000be
:104bdc0008000000008000007030000000000000a1
:104bec000808000008080000080000000000000091
:104bfc0060600000000000002010000008040000ad
:104c0c00020000003e510000494500003e0000003b
:104c1c00004200007f4000000000000072490000cc
:104c2c00494900004600000021410000494d0000a8
:104c3c003300000018140000127f00001000000068
:104c4c002745000045450000390000003c4a0000a3
:104c5c004949000031000000412100001109000009
:104c6c0007000000364900004949000036000000ea
:104c7c0046490000492900001e0000000000000009
:104c8c001400000000000000004000003400000090
:104c9c000000000000080000142200004100000089
:104cac001414000014140000140000000041000053
:104cbc002214000008000000020100005909000045
:104ccc00060000003e4100005d5900004e0000004f
:104cdc007c120000111200007c0000007f490000d3
:104cec0049490000360000003e41000041410000ef
:104cfc00220000007f410000414100003e00000006
:104d0c007f49000049490000410000007f09000074
:104d1c0009090000010000003e4100004151000063
:104d2c00730000007f080000080800007f000000ee
:104d3c00004100007f410000000000002040000006
:104d4c00413f0000010000007f0800001422000019
:104d5c00410000007f400000404000004000000087
:104d6c007f0200001c0200007f0000007f04000096
:104d7c00081000007f0000003e410000414100008f
:104d8c003e0000007f090000090900000600000039
:104d9c003e410000512100005e0000007f09000030
:104dac00192900004600000026490000494900006e
:104dbc0032000000030100007f010000030000002e
:104dcc003f400000404000003f0000001f2000005a
:104ddc00402000001f0000003f4000003840000051
:104dec003f00000063140000081400006300000082
:104dfc000304000078040000030000006159000067
:104e0c00494d000043000000007f000041410000bc
:104e1c004100000002040000081000002000000007
:104e2c0000410000414100007f000000040200002e
:104e3c00010200000400000040400000404000005f
:104e4c004000000000030000070800000000000004
:104e5c002054000054780000400000007f2800001f
:104e6c004444000038000000384400004444000072
:104e7c002800000038440000442800007f00000097
:104e8c0038540000545400001800000000080000c2
:104e9c007e0900000200000018a40000a49c000081
:104eac00780000007f080000040400007800000077
:104ebc00004400007d400000000000002040000085
:104ecc00403d0000000000007f100000284400005e
:104edc0000000000004100007f40000000000000c6
:104eec007c04000078040000780000007c080000be
:104efc000404000078000000384400004444000022
:104f0c0038000000fc1800002424000018000000e9
:104f1c001824000024180000fc0000007c0800008d
:104f2c000404000008000000485400005454000021
:104f3c0024000000040400003f4400002400000092
:104f4c003c400000402000007c0000001c200000c1
:104f5c00402000001c0000003c40000030400000dd
:104f6c003c00000044280000102800004400000011
:104f7c004c900000909000007c0000004464000005
:104f8c00544c0000440000000008000036410000b2
:104f9c00000000000000000077000000000000008e
:104fac000041000036080000000000000201000073
:104fbc0002040000020000003c2600002326000032
:104fcc003c0000001ea10000a161000012000000c6
:104fdc003a400000402000007a00000038540000e5
:104fec00545500005900000021550000557900006f
:104ffc0041000000225400005478000042000000e0
:10500c00215500005478000040000000205400009e
:10501c0055790000400000000c1e00005272000088
:10502c0012000000395500005555000059000000d1
:10503c003954000054540000590000003955000048
:10504c00545400005800000000000000457c000093
:10505c004100000000020000457d000042000000fd
:10506c0000010000457c0000400000007d120000a3
:10507c00111200007d000000f0280000252800001f
:10508c00f00000007c5400005545000000000000ba
:10509c0020540000547c0000540000007c0a0000e6
:1050ac00097f000049000000324900004949000016
:1050bc00320000003a440000444400003a00000072
:1050cc00324a000048480000300000003a4100001d
:1050dc00412100007a0000003a420000402000000c
:1050ec0078000000009d0000a0a000007d000000e2
:1050fc003d420000424200003d0000003d400000e7
:10510c00404000003d0000003c240000ff24000053
:10511c0024000000487e00004943000066000000a7
:10512c002b2f0000fc2f00002b000000ff090000bb
:10513c0029f6000020000000c08800007e09000055
:10514c0003000000205400005479000041000000ce
:10515c0000000000447d00004100000030480000c9
:10516c00484a000032000000384000004022000095
:10517c007a000000007a00000a0a000072000000a9
:10518c007d0d0000193100007d0000002629000073
:10519c00292f0000280000002629000029290000e2
:1051ac0026000000304800004d40000020000000a8
:1051bc00380800000808000008000000080800007b
:1051cc0008080000380000002f100000c8ac0000d8
:1051dc00ba0000002f10000028340000fa00000074
:1051ec00000000007b00000000000000081400001c
:1051fc002a14000022000000221400002a140000cf
:10520c00080000005500000055000000550000008b
:10521c00aa550000aa550000aa000000ff55000086
:10522c00ff550000ff0000000000000000ff000020
:10523c00000000001010000010ff00000000000033
:10524c001414000014ff00000000000010100000f7
:10525c00ff000000ff00000010100000f010000024
:10526c00f00000001414000014fc0000000000000a
:10527c0014140000f7000000ff0000000000000004
:10528c00ff000000ff00000014140000f4040000f4
:10529c00fc00000014140000171000001f00000098
:1052ac00101000001f1000001f000000141400005c
:1052bc00141f0000000000001010000010f000008f
:1052cc000000000000000000001f000010000000a3
:1052dc0010100000101f0000100000001010000043
:1052ec0010f00000100000000000000000ff0000a3
:1052fc001000000010100000101000001000000042
:10530c001010000010ff0000100000000000000052
:10531c0000ff00001400000000000000ff0000006f
:10532c00ff000000000000001f100000170000002c
:10533c0000000000fc040000f40000001414000045
:10534c00171000001700000014140000f4040000f3
:10535c00f400000000000000ff000000f700000057
:10536c0014140000141400001400000014140000a5
:10537c00f7000000f70000001414000014170000e0
:10538c0014000000101000001f1000001f0000008f
:10539c001414000014f4000014000000101000009d
:1053ac00f0100000f0000000000000001f100000d2
:1053bc001f00000000000000001f0000140000008f
:1053cc000000000000fc00001400000000000000c1
:1053dc00f0100000f000000010100000ff100000a2
:1053ec00ff0000001414000014ff00001400000063
:1053fc0010100000101f0000000000000000000052
:10540c0000f0000010000000ffff0000ffff000094
:10541c00ff000000f0f00000f0f00000f0000000d1
:10542c00ffff0000ff000000000000000000000073
:10543c0000ff0000ff0000000f0f00000f0f000026
:10544c000f00000038440000443800004400000005
:10545c00fc4a00004a4a0000340000007e020000b2
:10546c000206000006000000027e0000027e000022
:10547c000200000063550000494100006300000079
:10548c0038440000443c000004000000407e000052
:10549c00201e000020000000060200007e0200001a
:1054ac000200000099a50000e7a50000990000008b
:1054bc001c2a0000492a00001c0000004c7200004d
:1054cc00017200004c000000304a00004d4d0000fd
:1054dc003000000030480000784800003000000028
:1054ec00bc6200005a4600003d0000003e4900002e
:1054fc0049490000000000007e010000010100008d
:10550c007e0000002a2a00002a2a00002a0000003f
:10551c00444400005f44000044000000405100007f
:10552c004a44000040000000404400004a51000082
:10553c004000000000000000ff010000030000001c
:10554c00e0800000ff0000000000000008080000e0
:10555c006b6b0000080000003612000036240000bf
:10556c0036000000060f0000090f000006000000c6
:10557c0000000000181800000000000000000000ef
:10558c00101000000000000030400000ff0100007f
:10559c0001000000001f0000010100001e000000bf
:1055ac00001900001d17000012000000003c000054
:1055bc003c3c00003c00000000000000000000002b
:1055cc00000000004e4f00005f45000056450000f3
:1055dc004e54000000460000414900004c5f0000a2
:1055ec0045560000454e000054000000494e000096
:1055fc00495400005f450000564500004e54000021
:10560c00004500004e540000525900005f45000058
:10561c00564500004e54000000450000584900005b
:10562c00545f000045560000454e00005400000039
:10563c00544900004d450000555000005f450000e6
:10564c00564500004e540000005400004654000023
:10565c005f5400004f550000434800005f450000b8
:10566c00564500004e54000000460000534d00000b
:10567c005f540000454d0000504c000041540000a8
:10568c0045000000696e00006974000000730000a2
