:020000040000fa
:080000000002040000000000f2
:020000040000fa
:10000800de020000de020000de020000de02000068
:10001800de020000de020000de020000de02000058
:10002800de020000de020000de020000de02000048
:10003800de020000de020000de020000de02000038
:10004800de020000de020000d03300003c10000099
:10005800e60f0000de020000de020000de02000003
:10006800de020000de020000de0200000e260000b4
:10007800de020000de020000de020000de020000f8
:10008800de020000de020000de020000de020000e8
:10009800e0300000de020000c41300006e13000010
:1000a800de020000fa3300000e210000c620000026
:1000b800de020000de020000de020000de020000b8
:1000c800de020000de020000de020000de020000a8
:1000d800de020000de020000de020000de02000098
:1000e800de020000de020000b4270000de0200008d
:1000f800de020000de020000de020000de02000078
:10010800de020000de020000de020000de02000067
:10011800de020000de020000de020000de02000057
:10012800de020000de020000de020000de02000047
:10013800de020000de020000a6200000de02000051
:10014800de020000de020000de020000de02000027
:10015800de020000de020000de020000de02000017
:10016800de020000de020000de020000de02000007
:10017800de020000de020000de020000de020000f7
:10018800de020000de020000de020000de020000e7
:10019800de020000de020000de020000de020000d7
:1001a800de020000de020000de020000de020000c7
:1001b800de020000de020000de020000de020000b7
:1001c800de020000de020000de020000de020000a7
:1001d800de020000de020000de020000de02000097
:1001e800de020000de020000de020000de02000087
:1001f800de020000de020000de020000de02000077
:10020800de020000de020000de020000de02000066
:10021800de020000de020000de020000de02000056
:10022800de020000de020000de020000de02000046
:10023800de020000de020000de020000de02000036
:10024800de020000de020000de020000de02000026
:10025800de020000de020000de020000de02000016
:10026800de020000de020000de020000de02000006
:0c027800de020000de020000de020000da
:020000040000fa
:100400006f2a24000eff27000e0188000000000064
:10041000000020000000e000020032000001200087
:10042000200288000c000700e0612300010020008a
:100430000f000700000020000000e0000200320072
:100440000000020000000000ba38020000000000b6
:100450000040da000000fe00601f20000000e00005
:1004600002003200002020009001880000000600f9
:10047000a1028800800078000000eb001a0037001d
:10048000e280400054a0b4009101ba00e280400034
:1004900054a0b4009102ba00e280400054a0b4001d
:1004a0000002eb00472bde00f507b200a601880032
:1004b000602ce10008003a000049eb000201e8006e
:1004c000020039003420ec0002f0a0008301e900b2
:1004d000f9ff3e00040037006128e100010032000e
:1004e0000082eb00040007001101ba000200e000e6
:1004f000e3ff3a000000060004d0a300e20f490029
:100500001c003900810278003549ba000201e80078
:10051000020039003420ec0002f0a0008301e90061
:100520000f0032002549ba000201e800020039003c
:100530003420ec0002f0a0008301e9000800320042
:100540000400e0000600320015c9ba000201e8000c
:10055000020039003420ec0002f0a0008301e90021
:100560008180e80054a0b4000300e000e2ff3a00fc
:10057000000006009102ba00055978008301e900e5
:10058000f7ff3200c82ade00055978008301e90030
:10059000f3ff32000400e000f1ff320011d9ba008d
:1005a000eeff37005237040000000000820904000b
:1005b0000000000000000400000000000040da001d
:1005c0000000fe000a00fa0011002000b1bf9f00e9
:1005d000c0bf9f006a805700010407004fb8970012
:1005e0000080fa00000006000a00fa00e20f500046
:1005f00020003e0010158200e10f5000060032007e
:1006000080232000452320002323200004232000f2
:100610000000e00004003a00802220004522200073
:100620002322200004222000060028001403630077
:1006300003003a000608780000002800140a700041
:1006400013a8a30001003a0013a0a0000200780044
:10065000050037001388a300feff32003102fb00c3
:10066000840a78000000e9000000e000f9ff3a0089
:100670000800370033002000b3bf9f00c0bf9f00b9
:10068000d1bf9f00e2bf9f006a805700d6030700da
:100690006fb99700020078000080fa0000000600a1
:1006a0000a00fa0051002000b1bf9f00c0bf9f00a8
:1006b0006a805700ce0307005fb897000080fa00f9
:1006c00000000600889fbe0080047800201582008c
:1006d0000000e00004003a000e0007000084eb0078
:1006e0000000e00008003500281582000900e00045
:1006f0000500320009004400060007000000e00089
:1007000001003d000084eb00080078004f04be00ab
:1007100000000600800078000100e00003003a00bd
:100720000000200020158a00000005000080eb007a
:1007300002002000828f500002003e0021158a0036
:100740000000eb000000060003f0a200889fbe003e
:100750008a9fbe008c1f7800f3000700fa00330068
:100760006450e1004f0032006420e100520032008a
:1007700003826c0007003b000905d0000306d0008f
:10078000820f54000c065d000200390002003200a6
:1007900089017800030678008582550004003d0039
:1007a0000003fd008103fd008502ea008b85420005
:1007b000840f720002003b0060001000e08018000f
:1007c0006011b8000005eb007a28e1000a0039004a
:1007d00006007800c75ddd00f707b200878075006e
:1007e0002d003700828171000a01780061056000e8
:1007f0008180d1000080d3008502e900f9ff3b0031
:10080000060440008784480002003b006004140096
:10081000e0841c000988a300070032008a8171006f
:1008200082817100610164008904d1000884d300d1
:100830008b05e800170037000978a30013003a0081
:100840000b00e000130034008b05e90008044400ad
:1008500089844c000a4474000978a3000d003a0012
:100860000b00e000070034008b05e9000804440099
:1008700089844c0001003a000b0020000978a30095
:10088000f7ff32000001eb000200370082817100a7
:100890000a017800690007000cf0a70001f0a00031
:1008a000b20037006420e10002003a00838f6c0040
:1008b000b20033000801be000200be00ab003700ea
:1008c000889fbe008a9fbe008c1f7800960007009c
:1008d0009d00330003866c006450e1002e0032005e
:1008e0006420e100330032006150e1002f0032004b
:1008f0006120e1003100320085855500eb07b00032
:100900000900200008042000050037000804440006
:1009100089844c000a0031000603430087834b00a2
:100920000001530081815b00f8ff33000203be0029
:100930000800a0000804440089844c00f6ff390038
:10094000c639dd008301730001003200130020006e
:100950008904d1000884d3000998a300050032005f
:100960000800a7000300a0008904d1000884d30078
:100970008b05e8008904d1000884d3000001eb0056
:100980000281d2002d00070001f0a1000cf0a700a9
:1009900001f0a000750037006420e100770032000c
:1009a0000801be000200be00f7ff37006120e10031
:1009b000720032006000b800f3ff37000000200032
:1009c00001f82700f0ff37000001be0041000700da
:1009d0000470a70003f0a10003f8a30013003a007d
:1009e0006509b10010003200090035006928e100f6
:1009f0000200350001002800000005000000400052
:100a0000818048008502e900fcff3a0000000600f2
:100a1000f88f4200050035008100d1000080d3002e
:100a20008502e800fcff3a00000006008000eb00b1
:100a3000000005006011b800970037008100200019
:100a4000618055000b003d000b00200061fe2f006f
:100a50000100e1001d003400828171006101640029
:100a60008904d1000884d3000000e800faff3a00ae
:100a7000710020006100640003007000020060004b
:100a80000900320061044400e0844c000988a5009c
:100a9000050032008b05e8006808e10002003a001a
:100aa0008904d1000884d300f20f20000258e1002d
:100ab00005003d00c75ddd00f907b20089807500c3
:100ac00008007800000006000bf827008b00780073
:100ad00000000500c70ade00f107b200f50fb20002
:100ae00008003200e1cf4200020032000170a00095
:100af00024000500810f7000010032000408050089
:100b000044000500810f700002003a001400050047
:100b10008502e9000000400081c04800fcff3b0066
:100b20000170a000240005000004be00e9ff0700da
:100b30000003be000405be000200be00e5ff070082
:100b4000844f7500000006000200be006450e10002
:100b5000050036006420e100020036000968a300a9
:100b600001003a000800be000160a0004f067800b6
:100b70004f05be004f04be0000000600f0ff2f002e
:100b8000f1ff2700f9ff3700889fbe008a9fbe0053
:100b90008c1f7800e4ff0700ebff330003866c0036
:100ba0006450e100240032006420e100270032009c
:100bb0006150e100220032006120e100210032009a
:100bc0008b854200eb07b1000134b800003ab80051
:100bd0000804420089844a00013ab8000030b80095
:100be0008880400009014a000400330000004000f2
:100bf00081804800020149008b05e900c909dd0038
:100c0000830170000100320013002000c814de00d0
:100c10004814dd004709de001200b200c808de00fb
:100c20000884700085ff070001f0a1000cf0a70008
:100c300001f0a000cdff37006120e100cfff3200be
:100c40000801be000200be00f7ff37006150e1005e
:100c5000fcff3a00c9ff37006022b80006022000fe
:100c60000000d0008180d2000482d2008582d200b0
:100c70000000a0000202520083825a0003003100eb
:100c80000202420083824a000000a1000603e9003c
:100c9000f3ff3a0000000600889fbe008a9fbe0056
:100ca000008270000402710004827100260032008c
:100cb0000004be000200be006011b8006b092000f5
:100cc000950220000182cf000a0039000541b100e1
:100cd0000082cf00070039000541b1000982cf0032
:100ce000040039000541b1000882cf00010039003d
:100cf0000541b10005425200120032000a003b00db
:100d000082817100610164008100d1000080d30004
:100d10008984d3000884d3008b05e8000442e800ee
:100d2000f7ff3a00070037000804440089844c00ac
:100d300000004800818048008b05e9000442e9007a
:100d4000f9ff3a003dff07004f05be004f04be000b
:100d50000000060080017800020037008159780009
:100d60000201e9000200e000fcff3a00000006007a
:100d7000812224006a000700800078000080eb00d8
:100d80000100e0000400350081222400a0002000c2
:100d9000020007004f80de0000000600889fbe00b2
:100da0008a1f78000004be00c9009000690090000e
:100db000808f50000500390009007800b700070057
:100dc0008080eb000000e000160035000845780048
:100dd0004900900008587800c00498001900780075
:100de00000b8a30004003a0000a8a30007003200e6
:100df000ea4f540005003a00090078000d00070092
:100e00008080eb000000e00006003a0000c02000f7
:100e1000190060000200320049009000e0049800d0
:100e20008a80fb00010078004f0578004f04be0067
:100e300000000600889fbe008a1f7800000478002a
:100e40000800e0000d003a00682724007005440007
:100e50008004eb00580078000000e000040032003d
:100e6000f4ff07000000e00001003d008084eb007b
:100e70008a0f5400f7ff3a002500370000002200d7
:100e8000180060008004eb0021003200a8049000ec
:100e90000f00370009015100384090000000fb00ae
:100ea00089007800d0fd07000000e00007003c004a
:100eb000280090004004980060049800500c9800ae
:100ec0001890a0008084eb0011003700808444005b
:100ed00048019000828f5400eeff390028009000f6
:100ee000400498009800780002c020000281600051
:100ef00001003a003800900001e8a300020032002f
:100f00006004980001003700500c98008004eb004a
:100f1000090078004f0578004f04be00000006006d
:100f2000889fbe008a9fbe0080047800010478007c
:100f30002c003700c800900068009000808f50009f
:100f40000400390008007800540007000000e000a9
:100f50003700350000402000180060000900320012
:100f6000a1002000090078004200070080057800f9
:100f70000b00e00003003200618514000a85450083
:100f800004003700090078003400070000057800ed
:100f90008005eb0048009000e80090008080500041
:100fa0008a8f500002003100010578008005eb00b7
:100fb0000a017800890078002100070048009000ad
:100fc0000a004000400498000b00e00004003200da
:100fd0000800780097ff07000000e00014003a00c6
:100fe0008a8444001904e000d2ff3a000080200007
:100ff0001800600006003200080078008dff07002e
:10100000800078000080eb000100e00009003a0059
:1010100001c02000988060000000eb000500320055
:1010200048009000600498000000eb0001003700c9
:101030000080eb004f05be004f04be00000006001c
:101040008001780002003700b15978000201e90000
:101050000200e000fcff3a0000000600800078007b
:10106000010178003104e000fdff3a00000051006a
:10107000000006000001eb0000027800b04178009b
:1010800081cf510001003a00040178000304e00020
:10109000f9ff3a000200780000000600889fbe00b9
:1010a0008a1f780000047800c80090006801900052
:1010b0000000eb00828f50003c00390018007800df
:1010c0002200290002016000e20f510007003200f7
:1010d000012024000000e00001003d00012020006c
:1010e000008c70000080eb0030003700020026000a
:1010f00002006000820f500009003a0038009000a2
:10110000808f5000060039000800780049ff070072
:10111000800078000080eb000100e00023003a002e
:101120001805780000c020000000650018003a0093
:10113000a80490006002200008004000808f540046
:1011400013003a0000202000f1000700200498005e
:101150000000e00005003a002904980049049800c6
:101160008904e80039049800080037000a60a000ec
:101170000a0c780040049800012020008080400084
:1011800031049800400c9800500c98000c000700a7
:1011900028009000500498003800900060049800e7
:1011a00000002600180c70000000eb004f057800ce
:1011b0004f04be00000006002098200062003700a7
:1011c000881f7800e8ff23001804e00003003a00bd
:1011d000f9ff070020c0b300004c78004f047800ee
:1011e00000000600889fbe00000478000800780018
:1011f00010ff070080047800000420001800600041
:1012000002003200280090005c0007000000eb00a4
:1012100020049800384090000004e00005003500ec
:101220000000fb00e7fc07000000e00001003200c6
:101230008084eb00181090000000e00008003200ed
:1012400017fd07000000e000010032008084eb0081
:1012500018109000490007000000eb0010149800df
:101260000008200018006000150032000001eb00ab
:101270006000b8000202d00083272400030242006d
:10128000940f140005003a000000400081804800df
:10129000008041000008eb000600370061004000bc
:1012a000e08048000201e800e80f5000e08f58009d
:1012b000f0ff3a0008007800300007000e00370009
:1012c000000c780000c0eb00304498006002200061
:1012d0000800400020049800400498005004980042
:1012e000400c980060049800500c9800700498001e
:1012f00076004400000c9800090078004f04be00fe
:1013000000000600881f78000004eb006140b80070
:10131000e2ff2f00f3ff2f00b70007006228240030
:1013200080004100110078000000e0000100320060
:10133000acff07000804e800e80f5400f3ff3a0090
:101340004f04780000000600010020000100e000ca
:1013500009003200010080000100e00006003200b8
:101360008100e900010088008100d00002008000b7
:101370008280400080087800000006000000e00045
:101380002f003200c0017800e38f51002c0036009e
:101390000308a3002a003a00f11482000100e000d3
:1013a00002003200810f500004003100110098004b
:1013b000f0148a00160037008200780011019000b6
:1013c0000200e00002003200800f5100faff3900f5
:1013d0001102780084824000850f50001800390007
:1013e000808f520003003a00830842000100780019
:1013f000070037000200e0000300320083014000d4
:10140000830f51000e0039001200980090009800e0
:10141000900090000100e00009003200100140003f
:10142000828f500006003a00c22924000009eb0018
:1014300010017800110841009100900011009800ff
:1014400000000600889fbe0000047800e1148200be
:101450000100e00002003200010078000d003700ba
:10146000f1148200e029240004003700910f540099
:10147000250036000180e800910090000100e000a6
:10148000faff3a0010003700920f54001e00360099
:101490000280e800100178000200e000faff3a0044
:1014a00011017800f1148200e029240004003700c3
:1014b000910f5400140036000180e8009100900064
:1014c000828f5000faff3a0009158200888f54007d
:1014d0000100310088047800090078003600070018
:1014e0000000e00004003a00888f5400050032003c
:1014f0008904d100f5ff3700091878009fff070025
:10150000d2ff37000000eb004f04be0000000600d1
:10151000881f7800630440000800a1008000eb00f1
:10152000800f540021003600e30f540001003e00fc
:101530004800200008007800c2ff07008000eb0090
:101540000000e0001900320090007800910178005e
:1015500064815100880f5100030031001101900097
:101560000208780007003700088140000208780070
:1015700091019000130198001001780011091400e6
:1015800088087800100178000000eb000200e000fd
:1015900004003200920190000300e00001003200dc
:1015a0000280e800e0148a008180e80001007800f1
:1015b0004f04780000000600800078000000eb0077
:1015c0000100e00005003400010078003dfc070048
:1015d000e10f400001003a000000eb0000000600af
:1015e00000c0da000000060000c0da0000000600bb
:1015f00000c0da0000000600020ab900001bb900b2
:101600000200b80081004200810043000000060093
:020000040000fa
:10161000496e00007420000069320000630a000077
:10162000004400006576000069630000652000004a
:101630004944000020530000656e0000740a000059
:10164000004e000065780000742000004a6f000022
:10165000622e00002e2e00000a00000052450000fd
:10166000414400000a0000005752000049540000a5
:10167000450a000000610000636b00000a000000e2
:10168000736500006e640000696e00006720000052
:101690006164000064720000657300007320000044
:1016a00068690000676800000a00000073650000b8
:1016b0006e640000696e0000672000006164000035
:1016c0006472000065730000732000006c6f0000fe
:1016d000770a00000072000065730000746100006a
:1016e00072740000696e0000670a00000073000059
:1016f000656e0000646900006e67000020720000e3
:1017000065610000642000006164000064720000f4
:1017100065730000730a000000730000656e00002e
:10172000646900006e670000204e00004143000025
:101730004b0a000000670000657400002061000093
:101740006e6f000074680000657200002062000087
:1017500079740000650a000000610000636b0000fe
:1017600020520000656100006420000072650000e6
:101770007175000065730000740a000000770000b6
:1017800072690000746900006e6700002044000068
:1017900061740000610a0000004400006f6e0000e8
:1017a000652000005772000069740000696e000037
:1017b000670a0000006500006e64000020740000ed
:1017c000726100006e7300006d69000073730000a9
:1017d000696f00006e0a0000000000004e4f00001c
:1017e0005f450000564500004e54000000460000d2
:1017f000414900004c000000494e000049540000df
:10180000004500004e540000525900000045000001
:101810005849000054000000544900004d450000a4
:1018200055500000006900006e690000740000005f
:10183000736f00006d650000537400006174000058
:1018400065000000616e00006f74000068650000b4
:10185000725300007461000074650000007900009c
:1018600065740000416e00006f7400006865000040
:1018700072530000746100007465000000000000f5
:1018800052370000000000000000000000000000cf
:101890000000000000000000000000000000000048
:1018a000000000004e4f00005f450000564500005c
:1018b0004e54000000460000414900004c0000006a
:1018c000494e000049540000004500004e540000fd
:1018d0005259000000450000584900005400000023
:1018e000544900004d45000055500000000a00001a
:1018f0000a0a0000686500006c6c00006f200000a0
:101900007468000069730000206900007320000003
:1019100074680000652000007465000073740000a6
:1019200020700000726f000067720000616d00009f
:10193000206600006f7200002074000068650000df
:1019400020440000415300004820000056320000af
:10195000000000004e4f00005f45000056450000ab
:101960004e54000000460000414900004c000000b9
:10197000494e000049540000004500004e5400004c
:101980005259000000450000584900005400000072
:10199000544900004d45000055500000006900000a
:1019a0006e69000074000000736f00006d65000038
:1019b000537400006174000065000000616e000057
:1019c0006f740000686500007253000074610000cd
:1019d000746500000079000065740000416e00002d
:1019e0006f740000686500007253000074610000ad
:0c19f00074650000000000000908000001
:020000040000fa
:1019fc001a00fa00100f9800210f9800320f98006f
:101a0c00430f9800360507008100d1000080d300f9
:101a1c0020079800310798002e019000be0190001d
:101a2c0000092d0031002000800f5100818f5900da
:101a3c0002003e000040eb00e50037003e0990003c
:101a4c00ce0990002e009000be0090007ffc070095
:101a5c004c09dd004400de0000007100c408de000b
:101a6c00000078000000e900400798003e09900053
:101a7c00ce0990002e009000be00900073fc070071
:101a8c00e9fb0700008fbe000200200003182400b1
:101a9c001e00be0087fb0700008fbe000200200066
:101aac0003f823001e00be0024fb0700008fbe00bd
:101abc001e00be00c1fb0700dbfb070050079800af
:101acc00610798005e019000ee0190001e00be00c0
:101adc001afb07000200200003f8230018fb070084
:101aec0050079800610798005e009000ee0090008f
:101afc00b2fb0700700798007e009000e10f5000c9
:101b0c0005003a000200200003f823001e00be006e
:101b1c000bfb0700008fbe001e00be00a7fb0700da
:101b2c0070079800fe009000410798002e08900066
:101b3c00004078000074a1008080fb00f0072000ba
:101b4c00008060002236800001f82f0081006100c7
:101b5c0001007000203688001e0890008000eb0009
:101b6c00d200200003002000820f5000838f580009
:101b7c006a003e00000601000d003700120037001d
:101b8c00180037001d0037002300370028003700ed
:101b9c002e00370033003700390037003e00370085
:101bac0044003700490037004f003700540037001d
:101bbc000134800000fc2f00008060000000a000b9
:101bcc00003488005700370001348000f00f2c00df
:101bdc00808060000010200001007000003488003c
:101bec00500037001134800000fc2f000080600092
:101bfc000000a000103488004a0037001134800027
:101c0c00f00f2c008080600000102000010070009c
:101c1c0010348800430037002134800000fc2f0072
:101c2c00008060000000a000203488003d003700d8
:101c3c0021348000f00f2c00808060000010200008
:101c4c0001007000203488003600370031348000e9
:101c5c0000fc2f00008060000000a00030348800e1
:101c6c003000370031348000f00f2c008080600091
:101c7c00001020000100700030348800290037006b
:101c8c004134800000fc2f00008060000000a000a8
:101c9c00403488002300370041348000f00f2c00c2
:101cac00808060000010200001007000403488002b
:101cbc001c0037005134800000fc2f0000806000b5
:101ccc000000a0005034880016003700513480000a
:101cdc00f00f2c00808060000010200001007000cc
:101cec00503488000f0037006134800000fc2f0056
:101cfc00008060000000a0006034880009003700fc
:101d0c0061348000f00f2c008080600000102000f7
:101d1c0001007000603488000200370010c0b3006e
:101d2c002b0037002002a900001180000010a10038
:101d3c000020a1000011880020a2a9002062a900a7
:101d4c002082a9004e0190004211880023a2a90014
:101d5c0023e2a800101180000060a1000070a10017
:101d6c0010118800304280000000a0000010a1007b
:101d7c000020a100304288002168a8002042800089
:101d8c0000c0a00000d0a10000e0a100204288000b
:101d9c0021e2a8002342a8003011800000579800cf
:101dac000040eb00005798003e099000ce099000cf
:101dbc002e009000be009000a4fb070000007800ed
:101dcc00d08088001a100900000000000040eb00d1
:101ddc000080fa00000006000400fa0010079800ca
:101dec0010c0b30018f0b7000000eb00000f780033
:101dfc0011003700b24181001e0090001e0040000f
:101e0c009040780040032200000041000148780017
:101e1c00b04181000000e800b04189001e0fe800cd
:101e2c00b141810000802000808f500002003a00f8
:101e3c000000eb00b04189001e0090001e00400025
:101e4c00104078000004e000eaff3a002188a80066
:101e5c000040eb000080fa00000006000400fa00cd
:101e6c00100798000000eb00000f78003a003700d4
:101e7c001e0078009e0090000080400062c180002f
:101e8c00c102210081004100914078000148780096
:101e9c0061c18000c0022100008040008040eb0046
:101eac000148780060c180000000e80060c1880033
:101ebc001e0fe80061c1800000802000808f500060
:101ecc0002003a000000eb0060c1880061c1800094
:101edc00c00221000080400010407800ea4f500002
:101eec001d003a001e0078009e009000008040000b
:101efc0062c18000c1022100810041009140780044
:101f0c00014878001e0fe80061c18000c00221006a
:101f1c00008040008040eb000148780060c18000e8
:101f2c000000e80060c188001e0078009e00900050
:101f3c00008040008040eb000148780061c18000c7
:101f4c0070c18000808f50000800320010c0b300b8
:101f5c0016f0b7000600370061c1800070c1800028
:101f6c00808f5000c2ff3a000100370000000000d3
:101f7c001670ef000040eb000080fa000000060035
:101f8c000200fa000040eb00004f780016d0bf00b2
:101f9c000004e0000300320010c0b300004f7800d2
:101fac001670ef001e4078000080fa00000006005a
:101fbc000000fa0018d0bf000080fa0000000600f4
:101fcc00809fbe003200f8003400f80010002000a2
:101fdc00a001880000202000900188000000000073
:101fec000000fa000188a90016003700a141810009
:101ffc004003220000804000104078000000fb00ed
:10200c0020118800a04181000000e800a041890057
:10201c00a141810000802000808f500002003a0016
:10202c000000eb00a0418900a1418100b04181007a
:10203c00808f500003003a002188a9001870ef002f
:10204c000500370011118000002020000080600086
:10205c000000e000e5ff32000080fa003400f900d7
:10206c003200f9004f00be0000400600809fbe0009
:10207c00821f78003200f8003400f80010002000b5
:10208c00a0018800002020009001880000000000c2
:10209c000000fa000168a9001700370072c1800027
:1020ac003011800080407800c00221000000410007
:1020bc000148780071c18000c002210000804000fe
:1020cc0010407800ea4f500002003a0010c0b300f4
:1020dc0016f0b70070c180000000e80070c18800e5
:1020ec0071c1800000802000808f500002003a00f7
:1020fc000000eb0070c188001011800061006000ce
:10210c000000e000e5ff3a000080fa003400f9001e
:10211c003200f9004f0178004f00be00004006006d
:10212c001a00fa00100f9800210f9800320f980037
:10213c00430f980031e2a900690307008100d10028
:10214c000080d30020079800310798003e099000ca
:10215c00ce0990002e009000be009000bbfa070044
:10216c004c09dd004400de0000007100c408de00f4
:10217c00000078000000e900400798003e0990003c
:10218c00ce0990002e009000be009000affa070020
:10219c0025fa0700008fbe0002002000031824005f
:1021ac001e00be00c3f90700008fbe000200200015
:1021bc0003f823001e00be0060f90700008fbe006c
:1021cc001e00be00fdf9070017fa07005007980023
:1021dc00610798005e019000ee0190001e00be00a9
:1021ec0056f907000200200003f8230054f90700f9
:1021fc0050079800610798005e009000ee00900078
:10220c00eef90700700798007e009000e10f500077
:10221c0005003a000200200003f823001e00be0057
:10222c0047f90700008fbe001e00be00e3f907004f
:10223c0070079800fe009000410798002e0890004f
:10224c00004078000074a1008080fb00f0072000a3
:10225c00008060003236800001f82f0081006100a0
:10226c0001007000303688001e0890008000eb00e2
:10227c00d200200003002000820f5000838f5800f2
:10228c006a003e00000601000d0037001200370006
:10229c00180037001d0037002300370028003700d6
:1022ac002e00370033003700390037003e0037006e
:1022bc0044003700490037004f0037005400370006
:1022cc000134800000fc2f00008060003000b3005f
:1022dc00003488005700370001348000f00f2c00c8
:1022ec008080600000302000010070000034880005
:1022fc00500037001134800000fc2f00008060007b
:10230c003000b300103488004a00370011348000cc
:10231c00f00f2c0080806000003020000100700065
:10232c0010348800430037002134800000fc2f005b
:10233c00008060003000b300203488003d0037007e
:10234c0021348000f00f2c008080600000302000d1
:10235c0001007000203488003600370031348000d2
:10236c0000fc2f00008060003000b3003034880087
:10237c003000370031348000f00f2c00808060007a
:10238c000030200001007000303488002900370034
:10239c004134800000fc2f00008060003000b3004e
:1023ac00403488002300370041348000f00f2c00ab
:1023bc0080806000003020000100700040348800f4
:1023cc001c0037005134800000fc2f00008060009e
:1023dc003000b300503488001600370051348000b0
:1023ec00f00f2c0080806000003020000100700095
:1023fc00503488000f0037006134800000fc2f003f
:10240c00008060003000b3006034880009003700a1
:10241c0061348000f00f2c008080600000302000c0
:10242c0001007000603488000200370010c0b30057
:10243c002b0037003002a900801180000010a10091
:10244c000020a1008011880030a2a9003062a900f0
:10245c003082a9004e019000c211880033a2a9005d
:10246c0033e2a800901180000060a1000070a10070
:10247c00901188007042800000c0a10000d0a00024
:10248c0000e0a1007042880023c8a80070428000c0
:10249c000080a0000090a00000a0a1007042880065
:1024ac0031e2a8003342a800b01180000057980018
:1024bc000040eb00005798003e099000ce099000b8
:1024cc002e009000be009000e0f90700000078009c
:1024dc00d08088001a100900000000000040eb00ba
:1024ec000080fa00000006000400fa0010079800b3
:1024fc0010c0b30019f0b7000000eb00000f78001b
:10250c0011003700d28181001e0090001e00400097
:10251c009040780080832200000041000148780040
:10252c00d08181000000e800d08189001e0fe800f6
:10253c00d181810000802000808f500002003a0081
:10254c000000eb00d08189001e0090001e004000ae
:10255c00104078000004e000eaff3a0023e8a800ed
:10256c000040eb000080fa00000006000400fa00b6
:10257c00100798000000eb00000f78003a003700bd
:10258c001e0078009e0090000080400082018100b7
:10259c0001832100810041009140780001487800be
:1025ac008101810000832100008040008040eb000d
:1025bc0001487800800181000000e800800189005a
:1025cc001e0fe8008101810000802000808f5000e8
:1025dc0002003a000000eb008001890081018100bb
:1025ec00008321000080400010407800ea4f50002a
:1025fc001d003a001e0078009e00900000804000f4
:10260c00820181000183210081004100914078000a
:10261c00014878001e0fe800810181000083210031
:10262c00008040008040eb00014878008001810070
:10263c000000e800800189001e0078009e009000d8
:10264c00008040008040eb0001487800810181004f
:10265c0090018100808f50000800320010c0b30040
:10266c0017f0b7000600370081018100900181004e
:10267c00808f5000c2ff3a000100370000000000bc
:10268c000040eb000080fa00000006000200fa0097
:10269c000040eb00004f780000142300810007007d
:1026ac000004e0000300320010c0b300004f7800bb
:1026bc001770ef001e4078000080fa000000060042
:1026cc000000fa0019d0bf000080fa0000000600dc
:1026dc00809fbe003200f8003400f800100020008b
:1026ec00a00188000020200090018800000000005c
:1026fc000000fa0003e8a90016003700c181810030
:10270c008083220000804000104078000000fb0015
:10271c00a0118800c08181000000e800c081890000
:10272c00c181810000802000808f500002003a009f
:10273c000000eb00c0818900c1818100d081810043
:10274c00808f500003003a0023e8a9001970ef00b5
:10275c0005003700911180000020200000806000ef
:10276c000000e000e5ff32000080fa003400f900c0
:10277c003200f9004f00be00004006003600f800a1
:10278c00809fbe00829fbe00849fbe00869fbe00bd
:10279c003200f8003400f80010002000a00188007e
:1027ac000020200090018800000000000000fa00ca
:1027bc0003c8a9001900370092018100b0118000f4
:1027cc00804078000083210000004100014878001f
:1027dc0091018100008321000080400010407800ae
:1027ec00ea4f500004003a000014230018000700c0
:1027fc0010c0b30017f0b700900181000000e80092
:10280c00900189009101810000802000808f500090
:10281c0002003a000000eb0090018900901180004a
:10282c00610060000000e000e3ff3a000080fa0065
:10283c003400f9003200f9004f03be004f02be0015
:10284c004f01be004f00be003600f90000400600ec
:10285c000200fa00000f78001e00780010009100b2
:10286c009e0078008080400012c0b300824878003f
:10287c008000e8001e007800110099001e0078000e
:10288c0090009100e00f2000808f50000300360074
:10289c001e0078008000eb00110099000080fa0007
:1028ac00000006000200fa00000f78001e007800fd
:1028bc00800091001e00780010009100808f500065
:1028cc00130032001e007800000091009e0078007a
:1028dc00808040000041eb00824878008000e800d6
:1028ec001e007800010099001e0078008000910005
:1028fc00e00f2000808f5000030036001e0078008f
:10290c008000eb000100990010c0b30001003700fb
:10291c000040eb000080fa00000006000000fa0006
:10292c001e2eef00f0708000707088002e2eef00cd
:10293c0023eca90023cca90043eca90043cca900ab
:10294c0063eca90063cca9000080fa00000006002b
:10295c000a00fa00889fbe002007980031079800f3
:10296c00024f98000e4890000004e00005003a0069
:10297c00005f2d0001072000208088003180880036
:10298c00070037000e489000e14f500004003a0059
:10299c0000202100a10720002080880031808800c1
:1029ac002e019000be01900000202100a107200004
:1029bc00800f5100818f5900ba0036000040eb00a7
:1029cc00004f78000040eb00104798000040eb00ef
:1029dc0030479800090037001e4090000040e80086
:1029ec00104798001e409000e24f500003003a0040
:1029fc001e4090000040e800104798001e409000d8
:102a0c000080fb000000e80000004000cf80de00ea
:102a1c002e0190008191b900be019000809ab900fe
:102a2c008401780003014100ae0190000018b80049
:102a3c000101410082007800f2df20007372200057
:102a4c00820f5000838f5800e3ff360001003700df
:102a5c001e4fe80024808000358080001e80fb0023
:102a6c000080e800cf80de000001be000400be0044
:102a7c0076f807000001be00f01f2100a10720001e
:102a8c00800f5100818f5900f1ff3e001e409000d5
:102a9c000080fb000000e80000004000cf80de005a
:102aac002e0190008191b900be019000809bb9006d
:102abc008601780003014100ae019000001cb800b3
:102acc000901410082047800248080003580800058
:102adc001e80fb000080e800cf80de000001be00fd
:102aec000400be0059f807000001be000800be003b
:102afc0056f807000040780000c0e9003047980005
:102b0c003e4090000080fb000080e8006101b900ad
:102b1c002080800031808000809ab900828bb900bf
:102b2c0086027800050242000010b8000102420043
:102b3c00840078001e81fb008281e8001e41900019
:102b4c000281fb000201e800020141008299b900f8
:102b5c00cf91de003df807000080880011808800ce
:102b6c009e4078007fc060000080fb007f0060000a
:102b7c00223a800001fe2f008100610001007000ec
:102b8c00203a88001e409000634060000080fb00eb
:102b9c00630060004600dd00223a8000f1f32f0054
:102bac008100610001007000203a88003e409000d6
:102bbc000080fb00303a88000e4890000004e000d2
:102bcc0008003a001200200080072000a109200014
:102bdc00337420008049780081497800824978005c
:102bec000a0037000e489000e14f500007003a00f1
:102bfc003200200080072000a1092000337420003f
:102c0c00804978008149780082497800103a800028
:102c1c00000178000200a000600420007105200073
:102c2c00237420008049780081497800824978001b
:102c3c000e4890000004e00008003a00000000007c
:102c4c00113a800000002700808060000000210005
:102c5c00808f5000faff3a000c0037000e489000ad
:102c6c00e14f500008003a0000000000113a8000cb
:102c7c00000027008080600000002300808f50003f
:102c8c00faff3a000100370000000000113a800002
:102c9c0000022000008060000000e000fbff32001a
:102cac008b0037002e019000be0190000020210007
:102cbc00a1072000800f5100818f590028003a0095
:102ccc000e4890000004e0000a0032000e4890000c
:102cdc00e14f500007003a0022002000800720003e
:102cec00a1092000337420008049780081497800c4
:102cfc0082497800103a8000000178000200a000a0
:102d0c0060042000710520002374200080497800a5
:102d1c0081497800824978000e4890000004e00058
:102d2c000a0032000e489000e14f500007003a00b4
:102d3c0000000000113a8000000027008080600035
:102d4c0000002200808f5000faff3a0020808000a3
:102d5c003180800000808800118088005c00370082
:102d6c002e019000be01900020a127000100200040
:102d7c00800f5100818f59001c003a005200200036
:102d8c0080072000a10920003374200080497800be
:102d9c008149780082497800103a8000000178005f
:102dac000200a000600420007105200023742000a4
:102dbc008049780081497800824978000000000041
:102dcc00113a800000002700808060000000250080
:102ddc00808f5000faff3a00208080003180800004
:102dec000080880011808800390037002e01900087
:102dfc00be019000f01f2100a1072000800f5100a0
:102e0c00818f590032003e000040eb0020479800b3
:102e1c0010c0b300204798002a0037002e409000c5
:102e2c000081fb0000202100a10720008201780016
:102e3c008301e900030033008180d1000080d300be
:102e4c00fbff37000001be002e009000be0090007a
:102e5c00800f5100818f590017003a002e409000ce
:102e6c00674060000080fb00670060004800dd00e8
:102e7c00223a8000f18f2f00810061000100700068
:102e8c00203a880024808000358080002e409000fd
:102e9c000080fb00110020000008dd00cf80de0068
:102eac000001be000400be0068f707000080880027
:102ebc0011808800060037002e4090000040e8008a
:102ecc00204798002e409000e74f5000d3ff36006b
:102edc00100020004f04be000080fa000000060025
:102eec000000fa0000808000118080000080fa0051
:102efc00000006001200fa00889fbe0070079800c0
:102f0c0001579800f6ff07008100d1000080d30024
:102f1c00008fbe000040eb00404798000040eb00e3
:102f2c0050479800370037007e0090006104b800cd
:102f3c001e00be00823e20000300200043f7070065
:102f4c0080c9b900888ab900840178000301410066
:102f5c000040b80001014100820078003007980061
:102f6c004107980030079800410798003e019000f7
:102f7c00ce019000f0ff2f0001002000800f5100c7
:102f8c00818f59001d0036005e4090000040e80023
:102f9c00504798005e4090000080fb00e10f50000d
:102fac0014003500e20f500003003400e30f500012
:102fbc00080032000f0037001e00be004d09dd0076
:102fcc004300de0000007100c308de00008fbe006d
:102fdc000c0037001e00be004e0add004200de0071
:102fec0000007200c208de00008fbe00000000006e
:102ffc000400370010c0b3003200370010c0b3001b
:10300c00404798004e4090000004e000c6ff32009c
:10301c007e0090008000eb0083f607000004be00e9
:10302c001e00be0080f6070002002000a34724000b
:10303c0020f607000001be000800be00cff6070016
:10304c0050079800610798000421ef005e40900043
:10305c00634060000080fb00630060004400dd0002
:10306c0022088000f1fc2f0081006100010070003b
:10307c00200888005e009000ee0090004ff60700dc
:10308c000000780010088800c3e8a8000e509000db
:10309c00674060000080fb00670060004c00dd00b2
:1030ac0002428000f1ff28008100610001007000e5
:1030bc00004288000068a9002068a80005e1a8006b
:1030cc000040eb004f04be000080fa000000060038
:1030dc000000fa002068a90005e1a9000080fa00b0
:1030ec00000006001200fa00889fbe0070079800ce
:1030fc00015798007aff07008100d1000080d300af
:10310c00008fbe000040eb00404798000040eb00f1
:10311c0050479800370037007e0090006104b800db
:10312c001e00be00823e200003002000c7f60700f0
:10313c0080c9b900888ab900840178000301410074
:10314c000040b8000101410082007800300798006f
:10315c004107980030079800410798003e01900005
:10316c00ce019000f0ff2f0001002000800f5100d5
:10317c00818f59001d0036005e4090000040e80031
:10318c00504798005e4090000080fb00e10f50001b
:10319c0014003500e20f500003003400e30f500020
:1031ac00080032000f0037001e00be004d09dd0084
:1031bc004300de0000007100c308de00008fbe007b
:1031cc000c0037001e00be004e0add004200de007f
:1031dc0000007200c208de00008fbe00000000007c
:1031ec000400370010c0b3003200370010c0b30029
:1031fc00404798004e4090000004e000c6ff3200ab
:10320c007e0090008000eb0007f607000004be0073
:10321c001e00be0004f6070002002000a347240095
:10322c00a4f507000001be000800be0053f607001d
:10323c0050079800610798001021ef005e40900045
:10324c00634060000080fb00630060004400dd0010
:10325c0082088000f1fc2f008100610001007000e9
:10326c00800888005e009000ee009000d3f5070007
:10327c000000780060088800c3e8a8000e50900099
:10328c00674060000080fb00670060004c00dd00c0
:10329c0012428000f1ff28008100610001007000e3
:1032ac001042880000e8a90020e8a80011e1a8005d
:1032bc000040eb004f04be000080fa000000060046
:1032cc000000fa0020e8a90011e1a9000080fa0032
:1032dc00000006001200fa00889fbe0070079800dc
:1032ec0001579800fefe07008100d1000080d3003a
:1032fc00008fbe000040eb00404798000040eb0000
:10330c0050479800370037007e0090006104b800e9
:10331c001e00be0002242400f30020004bf6070020
:10332c0080c9b900888ab900840178000301410082
:10333c000040b8000101410082007800300798007d
:10334c004107980030079800410798003e01900013
:10335c00ce019000f0ff2f0001002000800f5100e3
:10336c00818f59001d0036005e4090000040e8003f
:10337c00504798005e4090000080fb00e10f500029
:10338c0014003500e20f500003003400e30f50002e
:10339c00080032000f0037001e00be004d09dd0092
:1033ac004300de0000007100c308de00008fbe0089
:1033bc000c0037001e00be004e0add004200de008d
:1033cc0000007200c208de00008fbe00000000008a
:1033dc000400370010c0b3003100370010c0b30038
:1033ec00404798004e4090000004e000c6ff3200b9
:1033fc007e0090008000eb008bf507000004be00ff
:10340c001e00be0088f507000240220043972400ee
:10341c0028f507000001be000800be00d7f5070024
:10342c0050079800610798001221ef005e40900051
:10343c00634060000080fb00630060004400dd001e
:10344c0092088000f1fc2f008100610001007000e7
:10345c00900888005e009000ee00900057f5070081
:10346c000000780070088800c3e8a8000e50900097
:10347c00674060000080fb00670060002242800013
:10348c0081ff2f0081006100010070002042880044
:10349c000108a9002108a80013e1a8000040eb00d6
:1034ac004f04be000080fa00000006000000fa0085
:1034bc002108a90013e1a9000080fa000000060011
:1034cc001200fa00889fbe00700798000157980000
:1034dc0083fe07008100d1000080d300008fbe0066
:1034ec000040eb00404798000040eb00504798002c
:1034fc00370037007e0090006104b8001e00be004b
:10350c00823e200003002000d0f5070080c9b900de
:10351c00888ab90084017800030141000040b8009a
:10352c0001014100820078003007980041079800a3
:10353c0030079800410798003e019000ce019000a2
:10354c00f0ff2f0001002000800f5100818f5900e7
:10355c001d0036005e4090000040e8005047980087
:10356c005e4090000080fb00e10f5000140035001d
:10357c00e20f500003003400e30f5000080032004b
:10358c000f0037001e00be004d09dd004300de00b9
:10359c0000007100c308de00008fbe000c00370075
:1035ac001e00be004e0add004200de00000072006c
:1035bc00c208de00008fbe000000000004003700cf
:1035cc0010c0b3003200370010c0b3004047980061
:1035dc004e4090000004e000c6ff32007e009000d8
:1035ec008000eb0010f507000004be001e00be00ba
:1035fc000df5070002002000a3472400adf40700de
:10360c000001be000800be005cf5070050079800e2
:10361c00610798001e21ef005e409000634060003f
:10362c000080fb00630060004400dd00f2088000b5
:10363c00f1fc2f008100610001007000f00888008f
:10364c005e009000ee009000dcf4070000007800b3
:10365c00d0088800c3e8a8000e50900067406000b6
:10366c000080fb00670060004c00dd0062428000bf
:10367c00f1ff2800810061000100700060428800a9
:10368c000368a9002368a8001fe1a8000040eb0014
:10369c004f04be000080fa00000006000000fa0093
:1036ac002368a9001fe1a9000080fa0000000600b1
:1036bc000400fa00000f7800110798001e0090001b
:1036cc00004078000074a1008080fb00f00720000f
:1036dc0000806000a236800001f82f00810061009c
:1036ec0001007000a03688001e0078008000eb00fe
:1036fc00d200200003002000820f5000838f58005e
:10370c0069003e00000601000d0037001200370072
:10371c00180037001d003700230037002800370041
:10372c002e00370033003700380037003d003700db
:10373c0043003700480037004e0037005300370075
:10374c000134800000fc2f0000806000e000b3001a
:10375c00003488005600370001348000f00f2c0034
:10376c008080600000e020000100700000348800c0
:10377c004f0037001134800000fc2f0000806000e7
:10378c00e000b30010348800490037001134800089
:10379c00f00f2c008080600000e020000100700021
:1037ac0010348800420037002134800000fc2f00c8
:1037bc0000806000e000b300203488003c0037003b
:1037cc0021348000f00f2c008080600000e020008d
:1037dc00010070002034880035003700313480003f
:1037ec0000fc2f0000806000e000b3003034880043
:1037fc002f0037003134800000fc2f000080600067
:10380c00e000b300303488002900370041348000d8
:10381c0000fc2f0000806000e000b3004034880002
:10382c002300370041348000f00f2c0080806000b2
:10383c0000e0200001007000403488001c003700bc
:10384c005134800000fc2f0000806000e000b300c9
:10385c00503488001600370051348000f00f2c00d3
:10386c008080600000e0200001007000503488006f
:10387c000f0037006134800000fc2f0000806000d6
:10388c00e000b30060348800090037006134800028
:10389c00f00f2c008080600000e020000100700020
:1038ac00603488000200370010c0b30001003700fc
:1038bc000040eb000080fa00000006000200fa0055
:1038cc00004f780011479800002080000080a10074
:1038dc000090a10000a0a000002088000004a90016
:1038ec000164a900802080000060a0000070a1008d
:1038fc00802088001e409000f043b2008080fb00c6
:10390c00f0032000008060008220800001fc2f006a
:10391c0081006100010070008020880090208000f0
:10392c000030a0000040a0000050a00090208800b3
:10393c0012e4a800902080000080a0000090a0005d
:10394c0000a0a00090208800902080000000a10022
:10395c000010a0000020a1009020880012c4a90033
:10396c0013c4a80001cba90001aba800005880002b
:10397c000040a1000050a0000058880000588000b2
:10398c000000a1000010a100005888006004200075
:10399c0010588800700020007058880020442000c7
:1039ac006058880000002400205888000000240083
:1039bc003058880001eba80030e4a800802180007a
:1039cc000000a0000010a0008021880031e4a800b5
:1039dc00802180000080a0000090a0008021880041
:1039ec0032e4a800902180000000a0000010a0008c
:1039fc009021880033e4a800902180000080a00072
:103a0c000090a0009021880034e4a800a021800040
:103a1c000000a0000010a000a021880035e4a80040
:103a2c00a02180000080a0000090a000a0218800b0
:103a3c0036e4a800b02180000000a0000010a00017
:103a4c00b021880037e4a800b02180000080a000dd
:103a5c000090a000b02188000c04a8000a04a90062
:103a6c000004a80011cba90011aba900805880005c
:103a7c000040a1000050a0008058880080588000b1
:103a8c000000a1000010a100805888002002200036
:103a9c009058880070002000f058880000442000e6
:103aac00e058880000002400a05888000000240082
:103abc00b058880011eba800c02080000000a100c5
:103acc000010a100c020880080218000ff00600051
:103adc0000002e0001007000802188000022800070
:103aec00ff00600000002e00010070000022880022
:103afc003064a8004064a900002180000000a000f0
:103b0c000010a0000020a0000030a00000218800c0
:103b1c001404a8000004a9002448a8000448a90023
:103b2c000c24a8000a24a900804280000080a00078
:103b3c000090a00000a0a000804288002468a8008b
:103b4c000ca4a8000aa4a9008042800000c0a10017
:103b5c0000d0a00000e0a00080428800312080004e
:103b6c0000fe2f00008060000040a0003020880084
:103b7c003020800000d0a10000e0a00000f0a000e8
:103b8c00302088009e40780067c060000080fb00f9
:103b9c00670060004800dd0002208000f18f2f00dc
:103bac00810061000100700000208800000000000e
:103bbc00002080004500de00674060008080fb0034
:103bcc001e80fb00808f5000f9ff3a000040eb0094
:103bdc000080fa00000006000200fa00000f7800d6
:103bec001e007800004078001df0b7000080fa003d
:103bfc00000006000a00fa004007980003000900c4
:103c0c00001feb008e00b1004e00900000407800c9
:103c1c00004f78000e007800380007000080fa0092
:103c2c00000006001200fa00600798007207980066
:103c3c00030f98006e0f4700e300470007000900d0
:103c4c008058eb006e0090000040780030479800e0
:103c5c000040eb00204798000040eb002047980004
:103c6c000b0037002e4090000080fb000000e800a5
:103c7c009e00780091407800630040000177780046
:103c8c001e0fe8002e4090000040e80020479800ee
:103c9c002e409000e34f5000f2ff360063004700c7
:103cac00160007000080fa00000006000c00fa0065
:103cbc00400798005107980003000900001feb0013
:103ccc008e00b1004e00900000407800004f78004c
:103cdc005e0090004800de0000407800104798001d
:103cec005e00900000407800204798000e0078009d
:103cfc00020007000080fa00000006000600fa002f
:103d0c00200798001ed0bf00204798000040e80014
:103d1c001ef0b7001ed0bf00e84f500001003a0063
:103d2c001e70ef002e4090000080fb00d10121009e
:103d3c00914078008180fb004409dd000170200077
:103d4c0082807000c208dd004401dd000000240008
:103d5c0000004100010878002e4090000080fb001c
:103d6c00c400dd0020002400008040008000eb0037
:103d7c00010878002e4090000080fb00c400dd009c
:103d8c0040002400008040008100200001087800e1
:103d9c000000eb00000f78000000eb00000f780033
:103dac001b0037002e4090008081fb009e007800a5
:103dbc00638140001e00780000004000ae009000bf
:103dcc0000804000104078008080fb001e007800ce
:103ddc00000040000000e8002e02900000004200ad
:103dec00104078000080fb004800dd0001007000ee
:103dfc00800078004318dd00020040000001400004
:103e0c000000240000004100010878001e0fe800ab
:103e1c001e007800e30f5000e2ff34002e409000ab
:103e2c000080fb00e30f500018003200e30f50003d
:103e3c0007003c00e10f500010003200e10f500071
:103e4c0010003c000000e0000a00320019003700ae
:103e5c00e50f500011003200e50f50000d00350049
:103e6c00e60f50000f003200e70f50000f00320039
:103e7c00100037003064a8000e0037003164a80031
:103e8c000c0037003264a8000a0037003364a80025
:103e9c00080037003464a800060037003564a80019
:103eac00040037003664a800020037003764a8000d
:103ebc00000000000040eb000080fa00000006004b
:103ecc000200fa00000f78001e0078001040780005
:103edc000080fa00000006000a00fa004007980073
:103eec006000b80020079800310798006400470074
:103efc00100798000040eb00004f78000040eb00ea
:103f0c00004f78000a0037001e80fb009e009000d6
:103f1c00008040009e80fb008100e8004e01900074
:103f2c008100410091407800014878001e4fe80064
:103f3c001e407800e34f5000f3ff36002e00900037
:103f4c00be0090000080fa00000006000800fa0095
:103f5c00300798000000eb00000f78003e00900046
:103f6c000000e800100798003e0090000080e80078
:103f7c00200798001e009000104078000080fb0085
:103f8c00c800dd002e009000104078000080fb007f
:103f9c00008f70001e0078000080fa000000060000
:103fac000c00fa00500798000000eb001007980076
:103fbc000040eb0040479800820020008000eb009e
:103fcc005e00900060f30700402080000040780005
:103fdc00f043b2000080fb00300798000000eb00bb
:103fec00000f78000000eb00000f78002100370074
:103ffc001e00780000004000de0090008080400031
:10400c001e017800630041003e0190004311dd0069
:10401c0000004100000140000000240000004100ad
:10402c001000780000407800804878001e0078006e
:10403c00000040000000e800de009000808040009e
:10404c001e017800630041003e0190004311dd0029
:10405c00000041000001400000002400000041006d
:10406c00100078004800de0000407800804878009e
:10407c001e0fe8001e007800e30f5000dcff340038
:10408c001e00780000004000de0090000080400020
:10409c00a1c0b300014878001e0078000000400069
:1040ac000000e800de009000008040008040eb0043
:1040bc00014878003e009000700050001100200074
:1040cc000008dd000080ea0040079800ce00900058
:1040dc00112188001c70ef003e009000c400dd0030
:1040ec00000024000080400090007800003c20007c
:1040fc0000806000100798001e0090004600de0053
:10410c00404798004e4090000080fb000080fa0071
:10411c00000006000000fa00112180000021800040
:10412c00010070000000e0000200320010c0b3007b
:10413c00010037000040eb000080fa000000060090
:10414c003200f8003400f800881f780018002000b6
:10415c00a8018800082020009801880000000000b9
:10416c004f0478000000fa000a04a90008c8a9004e
:10417c000080fa003400f9003200f900004006001b
:10418c00809fbe003200f8003400f80010002000c0
:10419c00a001880000202000900188000000000091
:1041ac000600fa000000eb00000f780020208000d1
:1041bc00004078000074a1000080fb0010079800fc
:1041cc005120800000022000008060000000e00010
:1041dc00030032009e009000f0072000008f60006a
:1041ec001e0090007f006000200798000aa4a90020
:1041fc000468a9000a04a9000a24a9000080fa0096
:10420c003400f9003200f9004f00be0000400600f7
:10421c00801f78003200f8003400f80010002000f5
:10422c00a001880000202000900188000000000000
:10423c000000fa000a24a9000448a90010c0b30029
:10424c001cf0b7000080fa003400f9003200f900cd
:10425c004f007800004006000600fa001007980096
:10426c004147980010c0b300004f78001e0090002a
:10427c00ea0f500014003e004e4090000004e00095
:10428c00080032001e009000110020000008dd0024
:10429c0080007800007080000100700000708800c1
:1042ac00400037001e009000110020000008dd00c7
:1042bc000080ea00800078000070800000806000c0
:1042cc0000708800370037001e009000fa0f500075
:1042dc0017003e001e0090006b0050001007980065
:1042ec004e4090000004e000080032001e009000d8
:1042fc00110020000008dd00800078008070800034
:10430c000100700080708800260037001e009000ad
:10431c00110020000008dd000080ea008000780019
:10432c008070800000806000807088001d00370065
:10433c009e009000a0022000808f500017003e00cd
:10434c001e0090007b005000100798004e4090001b
:10435c000004e000080032001e0090001100200054
:10436c000008dd0080007800007180000100700002
:10437c00007188000b0037001e0090001100200017
:10438c000008dd000080ea008000780000718000e9
:10439c000080600000718800020037000040eb00d4
:1043ac00004f78001e4078000080fa0000000600e4
:1043bc000600fa00100798004147980010c0b3009f
:1043cc00004f78001e009000e10f50000d003200ed
:1043dc00e10f500003003900e20f500011003200d1
:1043ec00180037004e4090000004e000030032003b
:1043fc000080eb000070880015003700002eef00e5
:10440c00130037004e4090000004e000030032001f
:10441c000080eb00807088000d003700102eef003c
:10442c000b0037004e4090000004e0000300320007
:10443c000080eb000071880005003700202eef0093
:10444c00030037000040eb00004f78000000000034
:10445c001e4078000080fa00000006000600fa00fa
:10446c00100798004147980010c0b300004f780027
:10447c001e009000ea0f500014003e004e409000c9
:10448c000004e000080032001e0090001100200023
:10449c000008dd00800078002070800001007000b2
:1044ac0020708800400037001e0090001100200092
:1044bc000008dd000080ea00800078002070800099
:1044cc000080600020708800370037001e009000cc
:1044dc00fa0f500017003e001e0090006b005000b9
:1044ec00100798004e4090000004e00008003200d5
:1044fc001e009000110020000008dd0080007800f4
:10450c00a070800001007000a070880026003700a9
:10451c001e009000110020000008dd000080ea0061
:10452c0080007800a070800000806000a07088007f
:10453c001d0037009e009000a0022000808f5000cc
:10454c0017003e001e0090007b00500010079800e2
:10455c004e4090000004e000080032001e00900065
:10456c00110020000008dd00800078002071800020
:10457c0001007000207188000b0037001e009000b5
:10458c00110020000008dd000080ea0080007800a7
:10459c0020718000008060002071880002003700cc
:1045ac000040eb00004f78001e4078000080fa00bd
:1045bc00000006000600fa0010079800414798001a
:1045cc0010c0b300004f78001e009000e10f5000a7
:1045dc000d003200e10f500003003900e20f5000d3
:1045ec0011003200180037004e4090000004e0002b
:1045fc00030032000080eb002070880015003700ab
:10460c00042eef00130037004e4090000004e00031
:10461c00030032000080eb00a07088000d00370012
:10462c00142eef000b0037004e4090000004e00009
:10463c00030032000080eb00207188000500370079
:10464c00242eef00030037000040eb00004f7800f1
:10465c00000000001e4078000080fa0000000600f8
:10466c000400fa001007980010c0b300004f780047
:10467c001e009000ea0f500019003e001e00900032
:10468c00110020000008dd00800078002070800000
:10469c00008060000000e000090032001e00900065
:1046ac00110020000008dd000080ea008000780086
:1046bc002070800000806000207088004900370066
:1046cc001e009000110020000008dd008000780022
:1046dc0020708000010070002070880041003700bd
:1046ec001e009000fa0f50001c003e001e009000af
:1046fc006b005000100798001e0090001100200065
:10470c000008dd0080007800a07080000080600050
:10471c000000e000090032001e0090001100200093
:10472c000008dd000080ea0080007800a0708000a6
:10473c0000806000a07088002a0037001e009000e6
:10474c00110020000008dd0080007800a0708000bf
:10475c0001007000a0708800220037009e009000bd
:10476c00a0022000808f50001c003e001e00900014
:10477c007b005000100798001e00900011002000d4
:10478c000008dd008000780020718000008060004f
:10479c000000e000090032001e0090001100200013
:1047ac000008dd000080ea008000780020718000a5
:1047bc0000806000207188000a0037001e00900005
:1047cc00110020000008dd008000780020718000be
:1047dc000100700020718800020037000040eb00df
:1047ec00004f78001e4078000080fa0000000600a0
:1047fc000400fa001007980010c0b300004f7800b6
:10480c001e009000ea0f500006003e001170800060
:10481c001e0090000008de0000407800614f600030
:10482c001b0037001e009000fa0f500009003e00dc
:10483c001e0090006b0050001007980091708000d3
:10484c001e0090000008de0000407800614f600000
:10485c000f0037009e009000a0022000808f5000b7
:10486c0009003e001e0090007b00500010079800cd
:10487c00117180001e0090000008de0000407800de
:10488c00614f6000020037000040eb00004f7800e1
:10489c001e4078000080fa00000006000400fa00b8
:1048ac001007980010c0b300004f78001e00900055
:1048bc00ea0f500013003e001e0090001100200073
:1048cc000008dd008000780000708000008060002f
:1048dc000000e000080032001e00900011002000d3
:1048ec000008dd008000780050708000010070002e
:1048fc0050708800380037000040eb00004f780003
:10490c00350037001e009000fa0f500016003e00d4
:10491c001e0090006b005000100798001e009000c5
:10492c00110020000008dd008000780080708000fd
:10493c00008060000000e000080032001e009000c3
:10494c00110020000008dd0080007800d07080008d
:10495c0001007000d07088001f0037000040eb0091
:10496c00004f78001c0037009e009000a002200031
:10497c00808f500016003e001e0090007b005000ff
:10498c00100798001e009000110020000008dd00a8
:10499c008000780000718000008060000000e00062
:1049ac00080032001e009000110020000008dd00fd
:1049bc0080007800507180000100700050718800f8
:1049cc00050037000040eb00004f78000200370074
:1049dc000040eb00004f78001e4078000080fa0089
:1049ec00000006000400fa001007980010c0b30085
:1049fc00004f78001e009000ea0f500016003e0099
:104a0c001e009000110020000008dd0080007800de
:104a1c0000708000808060001e009000120020005a
:104a2c000010dd00808f500008003a001e0090003e
:104a3c00110020000008dd0080007800607080000c
:104a4c0001007000607088003b0037000040eb00f4
:104a5c00004f7800380037001e009000fa0f50000d
:104a6c0019003e001e0090006b00500010079800cb
:104a7c001e009000110020000008dd00800078006e
:104a8c0080708000808060001e009000120020006a
:104a9c000010dd00808f500008003a001e009000ce
:104aac00110020000008dd0080007800e07080001c
:104abc0001007000e07088001f0037000040eb0020
:104acc00004f78001c0037009e009000a0022000d0
:104adc00808f500016003e001e0090007b0050009e
:104aec00100798001e009000110020000008dd0047
:104afc008000780000718000008060000000e00001
:104b0c00080032001e009000110020000008dd009b
:104b1c008000780060718000010070006071880076
:104b2c00050037000040eb00004f78000200370012
:104b3c000040eb00004f78001e4078000080fa0027
:104b4c00000006000400fa001007980010c0b30023
:104b5c00004f78001e009000ea0f500008003e0045
:104b6c001e009000110020000008dd00800078007d
:104b7c004070800001007000407088001f003700fa
:104b8c001e009000fa0f50000b003e001e0090001b
:104b9c006b005000100798001e00900011002000c0
:104bac000008dd0080007800c070800001007000fb
:104bbc00c0708800110037009e009000a0022000f9
:104bcc00808f50000b003e001e0090007b005000b8
:104bdc00100798001e009000110020000008dd0056
:104bec0080007800407180000100700040718800e6
:104bfc00020037000040eb00004f78002268a8004c
:104c0c000268a9001e4078000080fa00000006002f
:104c1c00801f78003200f8003400f80010002000eb
:104c2c00a0018800002020009001880000000000f6
:104c3c000000fa0010708000808088009070800066
:104c4c009080880010718000a08088000268a90004
:104c5c000080fa003400f9003200f9004f007800af
:104c6c00004006000800fa00200798003107980061
:104c7c0017e2a90082eb210053e023002e009000e4
:104c8c00be009000adee0700008fbe0094f8070048
:104c9c0065ef0700020020000300240005ef070069
:104cac000001be001e00be00b4ef0700008fbe0066
:104cbc0002402200439724001e00be00fdee0700b8
:104ccc00008fbe0002002000030024001e00be0066
:104cdc009aee0700008fbe000200200003f02300b4
:104cec001e00be0096ee070034ef070000007800af
:104cfc00a01088001222ef001022ef00c0428000aa
:104d0c000080a0000090a00000a0a000c04288007d
:104d1c002648a80017e2a8000040eb000080fa002b
:104d2c00000006000200fa00004f78005024230017
:104d3c001e4878000040eb000080fa0000000600de
:104d4c000400fa00000f7800214798002e409000d4
:104d5c000004e00005003a001e0078008040780056
:104d6c007024230001487800090037001e007800e9
:104d7c004800de0080407800702423000148780051
:104d8c001e007800804078008024230001487800c1
:104d9c0060242300ae409000014878000040eb00f6
:104dac000080fa00000006000600fa0010079800c8
:104dbc00414798000000eb00000f78000000eb006a
:104dcc00000f7800080037001e0078009e0090004d
:104ddc000080400090407800802423001e0040009a
:104dec00114098001e0fe8004e4090000080fb0020
:104dfc009e0f5000f4ff3c00402423008040eb0049
:104e0c0001487800c0262300ce409000014878006d
:104e1c0000cf2300104078008080fb00a00220000f
:104e2c008088b90080007800007b2300008040005f
:104e3c00412423001400090031187800a002b100ad
:104e4c0000cf2300104078008040e80000cf230002
:104e5c000148780000cf23009040780000c2b300d6
:104e6c0080cf500003003a0000cf23008040eb00bd
:104e7c00014878001602a8002030ef000040eb003b
:104e8c000080fa00000006000400fa00000f780011
:104e9c0021479800c0262300ae40900001487800be
:104eac004024230011c0b300014878009e00780014
:104ebc005193890000cf2300104078008080fb00c4
:104ecc00a00220008088b90080007800007b2300bd
:104edc0000804000412423001400090031187800a0
:104eec00a002b10000cf2300104078008040e80001
:104efc0000cf23000148780000cf230090407800b9
:104f0c0000c2b30080cf500003003a0000cf230052
:104f1c008040eb00014878001602a8002030ef001a
:104f2c000040eb000080fa00000006000200fa00ce
:104f3c000040eb00004f780023d0bf000004e000dd
:104f4c00030032002370ef0010c0b300004f780054
:104f5c001e4078000080fa00000006003600f800c1
:104f6c00809fbe00829fbe00849fbe00869fbe00b5
:104f7c003200f8003400f80010002000a001880076
:104f8c000020200090018800000000000200fa00c0
:104f9c000648a90080b028008ff30700008180002c
:104fac00e40f500094003200e40f500007003e0064
:104fbc00e10f500034003200e10f50000c003900ba
:104fcc00e20f5000670032004e013700e60f500030
:104fdc00ac003200e60f500094003900e70f50008f
:104fec00f0003200e80f5000170132004501370085
:104ffc00c0108000680060000000e0001800320063
:10500c002270ef0010cf2300104078008080fb004e
:10501c00a00220008088b90080007800007b23006b
:10502c00008040001040900000404000004f78008d
:10503c001e80fb0090108800c1108000000024002e
:10504c00008060000000e0000200320010b1280077
:10505c0061f307001000200000818800290137004f
:10506c0010cf23009040780000cf23001040780030
:10507c0080cf50001401320010b2280056f3070004
:10508c001602a8001f013700c11080000000280084
:10509c00008060000000e0000d013a0010cf2300fa
:1050ac00104078008080fb00a00220008088b900ae
:1050bc008080e800007b23000080400010409000be
:1050cc000080fb009010880010cf23001040780067
:1050dc008080fb00a00220008088b9008080e8005e
:1050ec00007b230000804000104078000004e000aa
:1050fc0015003a0010cf2300104078008080fb0090
:10510c00a00220008088b90080007800007b23007a
:10511c000080400010407800e14f500005003a003c
:10512c00e0b228002cf3070040002000008188002a
:10513c000700370040b3280027f307007000200059
:10514c0000818800020037002000200000818800c8
:10515c00b0b3280020f3070000b428001ef30700aa
:10516c00e8003700c11080000000280000806000bb
:10517c000000e000d8003a0010cf23001040780067
:10518c008080fb00a00220008088b900e400400071
:10519c00007b230000804000104078000080fb0062
:1051ac009010880010cf2300104078008080fb0006
:1051bc00a00220008088b90080007800007b2300ca
:1051cc000080400010407800e14f500003003a008e
:1051dc004000200000818800020037007000200091
:1051ec0000818800b0b32800fbf2070060b52800ee
:1051fc00f9f20700c3003700c1108000000028003e
:10520c00008060000000e000b5003a00b0b3280058
:10521c00f1f207001622a800b0b62800eef2070043
:10522c005000200000818800b6003700c0108000bc
:10523c00680060000000e000ab00320070b728008e
:10524c00e5f2070010cf2300104078008080fb00af
:10525c00a00220008088b90080007800007b230029
:10526c0000804000104090000080fb0000004000d7
:10527c000000a000901088006000200000818800d1
:10528c00a0003700c0108000620060000000e00049
:10529c003b00320010cf2300104078008080fb00d0
:1052ac00a00220008088b9006102200080804000ac
:1052bc00007b2300008040001001780022d0bf004a
:1052cc008080fb0081004100821080000241780048
:1052dc00824878000040e80022f0b70010cf23008d
:1052ec00104078008080fb00a00220008088b9006c
:1052fc008102200080804000007b23000080400061
:10530c009040780022d0bf0080cf500017003a00a8
:10531c0010cf2300104078008080fb00a0022000fa
:10532c008088b9006102200080804000007b23004f
:10533c00008040009000780022d0bf000080fb006d
:10534c00008040008040eb00014878002270ef00a4
:10535c00d0b82800a0f2070016a2a8001682a80058
:10536c00800020000081880066003700b0b928005a
:10537c0099f2070016a2a9001682a8006100370056
:10538c00c110800000002800008060000000e000d8
:10539c0057003a00d0ba28008ff207001662a80016
:1053ac0058003700c1108000000028000080600009
:1053bc000000e00050003a0010cf230010407800ad
:1053cc008081fb0022d0bf008080fb00a202200065
:1053dc008299b9008100410064814000017b230067
:1053ec0081004100914090008100fb0091108800e9
:1053fc000040e80022f0b700f0bb280076f207006e
:10540c0010cf2300104078008080fb00a002200009
:10541c008088b9008102200080804000007b23003e
:10542c00008040009040780022d0bf0080cf500018
:10543c0033003a008000200000818800d0bc280096
:10544c0065f207002f003700b0bd280062f207009c
:10545c001642a80010cf2300104078008080fb007b
:10546c00a00220008088b90080007800007b230017
:10547c000080400010407800e14f500002003a00dc
:10548c0010c0b30023f0b70010cf230010407800f9
:10549c008040e80010cf23000148780010cf230093
:1054ac009040780000c2b30080cf500003003a0057
:1054bc0010cf23008040eb00014878002030ef0033
:1054cc00000000000f003700000000000d00370046
:1054dc00000000000b00370000000000090037003e
:1054ec000000000007003700000000000500370036
:1054fc00000000000300370000000000010037002e
:10550c00000000000080fa003400f9003200f900bd
:10551c004f03be004f02be004f01be004f00be0045
:10552c003600f900004006000800fa003007980029
:10553c00e1004700030009008058eb000040eb003d
:10554c00004f78000040eb00004f78002f00370030
:10555c001e80fb004200dd000080e80031fe2300cd
:10556c0000804000104078000004e00026003a0063
:10557c001e80fb0031fe23004200dd000080400055
:10558c000080e80011c0b300014878001e80fb00c9
:10559c0021fe23004200dd00008040001e48780000
:1055ac001e80fb00be0090008140780022fe23008c
:1055bc004200dd00000041000080e8000148780056
:1055cc001e80fb009e80fb0082292400810041008c
:1055dc009140780032fe23004200dd0000004100c3
:1055ec00014878001e80fb00c200dd0020fe230075
:1055fc0000804000e100470003000900b05878002b
:10560c004000b100040037001e4fe8001e40780037
:10561c00e34f5000ceff36001e407800e44f5000a0
:10562c0002003a000040eb00140137003e009000ed
:10563c008000eb00d200200003002000820f5000fd
:10564c00838f5800b0003e00000601000d003700ab
:10565c0017003700220037002c00370037003700c6
:10566c00410037004c00370056003700610037000e
:10567c006b00370076003700800037008b00370056
:10568c00950037002e409000f043b2008080fb0064
:10569c00f0032000008060000234800001fc2f0029
:1056ac008100610001007000003488009800370010
:1056bc002e409000f043b2008080fb00f0032000ed
:1056cc00008060004800dd0002348000f10f2c00e7
:1056dc008100610001007000003488008c003700ec
:1056ec002e409000f043b2008080fb00f0032000bd
:1056fc00008060001234800001fc2f0081006100ea
:10570c000100700010348800810037002e4090009a
:10571c00f043b2008080fb00f003200000806000aa
:10572c004800dd0012348000f10f2c008100610074
:10573c000100700010348800750037002e40900076
:10574c00f043b2008080fb00f0032000008060007a
:10575c002234800001fc2f008100610001007000e8
:10576c00203488006a0037002e409000f043b200cd
:10577c008080fb00f0032000008060004800dd000a
:10578c0022348000f10f2c008100610001007000b8
:10579c00203488005e0037002e409000f043b200a9
:1057ac008080fb00f0032000008060003234800019
:1057bc0001fc2f0081006100010070003034880072
:1057cc00530037002e409000f043b2008080fb0065
:1057dc00f0032000008060004800dd0032348000bf
:1057ec00f10f2c0081006100010070003034880042
:1057fc00470037002e409000f043b2008080fb0041
:10580c00f0032000008060004234800001fc2f0077
:10581c008100610001007000403488003c003700ba
:10582c002e409000f043b2008080fb00f00320007b
:10583c00008060004800dd0042348000f10f2c0035
:10584c008100610001007000403488003000370096
:10585c002e409000f043b2008080fb00f00320004b
:10586c00008060005234800001fc2f008100610038
:10587c000100700050348800250037002e40900045
:10588c00f043b2008080fb00f00320000080600039
:10589c004800dd0052348000f10f2c0081006100c3
:1058ac000100700050348800190037002e40900021
:1058bc00f043b2008080fb00f00320000080600009
:1058cc006234800001fc2f00810061000100700037
:1058dc00603488000e0037002e409000f043b20078
:1058ec008080fb00f0032000008060004800dd0099
:1058fc0062348000f10f2c00810061000100700007
:10590c0060348800020037000040eb005b00370079
:10591c001e4090000080fb00e10f50001d00320083
:10592c00e10f500003003c000000e00006003200d4
:10593c0051003700e20f500029003200e30f5000f5
:10594c003a0032004c0037000029ef000229ef002a
:10595c000048800000a0a00000b0a00000c0a00083
:10596c0000488800004880000000a1000010a00042
:10597c000020a000004888000629ef00007d2000d0
:10598c002048880010488000f001b30010488800bf
:10599c00390037000a29ef000c29ef00504880002d
:1059ac0000a0a00000b0a00000c0a00050488800db
:1059bc00504880000000a1000010a0000020a000b2
:1059cc00504888001029ef00007d200070488800a6
:1059dc0060488000f001b300604888002600370062
:1059ec001429ef001629ef00a048800000a0a000a9
:1059fc0000b0a00000c0a000a0488800a048800013
:105a0c000000a1000010a0000020a000a048880009
:105a1c001a29ef00007d2000c0488800b0488000a3
:105a2c00f001b300b0488800130037001e29ef00c6
:105a3c002029ef00f048800000a0a00000b0a000da
:105a4c0000c0a000f0488800f04880000000a100d1
:105a5c000010a0000020a000f04888002429ef00ce
:105a6c00007d20001049880000498000f001b3003f
:105a7c00004988000000000010c0b3000080fa004c
:105a8c00000006000600fa00100798002107980095
:105a9c000040eb00004f78000040eb0010479800ee
:105aac000040eb00004f7800120037001e80fb0016
:105abc004200dd000080e80021fe23000080400051
:105acc00104078008080fb001e009000808f5000fa
:105adc0007003a001e80fb004200dd0021fe23007f
:105aec000080400090407800114798000400370077
:105afc001e4fe8001e407800e34f5000ebff3600cd
:105b0c001e407800e44f500002003a000040eb00c9
:105b1c005b003700ae00900040062000808f5000e4
:105b2c000200360040062000200798001e4090001e
:105b3c000080fb00e10f50001b003200e10f500011
:105b4c0003003c000000e000060032004900370072
:105b5c00e20f500025003200e30f500034003200f9
:105b6c00440037002e0090008000eb00027d2000e6
:105b7c008289b900e002b900840178000301410078
:105b8c00037d20000300b800010141008200780071
:105b9c0042062000030020002cec070000007800d7
:105bac0030488800350037002e0090008000eb0054
:105bbc00027d20008289b900e002b90084017800de
:105bcc0003014100037d20000300b80001014100e6
:105bdc008200780042062000030020001bec070026
:105bec000000780080488800240037002e009000c8
:105bfc008000eb00027d20008289b900e002b90030
:105c0c008401780003014100037d20000300b800eb
:105c1c0001014100820078004206200003002000b0
:105c2c000aec070000007800d04888001300370009
